{
  "_format": "hh-sol-artifact-1",
  "contractName": "RealAssetNFT",
  "sourceName": "contracts/RealAssetNFT.sol",
  "abi": [
    {
      "inputs": [],
      "stateMutability": "nonpayable",
      "type": "constructor"
    },
    {
      "anonymous": false,
      "inputs": [
        {
          "indexed": true,
          "internalType": "address",
          "name": "owner",
          "type": "address"
        },
        {
          "indexed": true,
          "internalType": "address",
          "name": "approved",
          "type": "address"
        },
        {
          "indexed": true,
          "internalType": "uint256",
          "name": "tokenId",
          "type": "uint256"
        }
      ],
      "name": "Approval",
      "type": "event"
    },
    {
      "anonymous": false,
      "inputs": [
        {
          "indexed": true,
          "internalType": "address",
          "name": "owner",
          "type": "address"
        },
        {
          "indexed": true,
          "internalType": "address",
          "name": "operator",
          "type": "address"
        },
        {
          "indexed": false,
          "internalType": "bool",
          "name": "approved",
          "type": "bool"
        }
      ],
      "name": "ApprovalForAll",
      "type": "event"
    },
    {
      "anonymous": false,
      "inputs": [
        {
          "indexed": true,
          "internalType": "address",
          "name": "previousOwner",
          "type": "address"
        },
        {
          "indexed": true,
          "internalType": "address",
          "name": "newOwner",
          "type": "address"
        }
      ],
      "name": "OwnershipTransferred",
      "type": "event"
    },
    {
      "anonymous": false,
      "inputs": [
        {
          "indexed": true,
          "internalType": "address",
          "name": "from",
          "type": "address"
        },
        {
          "indexed": true,
          "internalType": "address",
          "name": "to",
          "type": "address"
        },
        {
          "indexed": true,
          "internalType": "uint256",
          "name": "tokenId",
          "type": "uint256"
        }
      ],
      "name": "Transfer",
      "type": "event"
    },
    {
      "inputs": [
        {
          "internalType": "address",
          "name": "to",
          "type": "address"
        },
        {
          "internalType": "uint256",
          "name": "tokenId",
          "type": "uint256"
        }
      ],
      "name": "approve",
      "outputs": [],
      "stateMutability": "nonpayable",
      "type": "function"
    },
    {
      "inputs": [
        {
          "internalType": "uint256",
          "name": "",
          "type": "uint256"
        }
      ],
      "name": "assets",
      "outputs": [
        {
          "internalType": "string",
          "name": "name",
          "type": "string"
        },
        {
          "internalType": "string",
          "name": "description",
          "type": "string"
        },
        {
          "internalType": "uint256",
          "name": "price",
          "type": "uint256"
        },
        {
          "internalType": "address payable",
          "name": "seller",
          "type": "address"
        },
        {
          "internalType": "bool",
          "name": "forSale",
          "type": "bool"
        }
      ],
      "stateMutability": "view",
      "type": "function"
    },
    {
      "inputs": [
        {
          "internalType": "address",
          "name": "owner",
          "type": "address"
        }
      ],
      "name": "balanceOf",
      "outputs": [
        {
          "internalType": "uint256",
          "name": "",
          "type": "uint256"
        }
      ],
      "stateMutability": "view",
      "type": "function"
    },
    {
      "inputs": [
        {
          "internalType": "uint256",
          "name": "tokenId",
          "type": "uint256"
        }
      ],
      "name": "buyAsset",
      "outputs": [],
      "stateMutability": "payable",
      "type": "function"
    },
    {
      "inputs": [
        {
          "internalType": "uint256",
          "name": "tokenId",
          "type": "uint256"
        }
      ],
      "name": "getApproved",
      "outputs": [
        {
          "internalType": "address",
          "name": "",
          "type": "address"
        }
      ],
      "stateMutability": "view",
      "type": "function"
    },
    {
      "inputs": [
        {
          "internalType": "uint256",
          "name": "tokenId",
          "type": "uint256"
        }
      ],
      "name": "getAsset",
      "outputs": [
        {
          "internalType": "string",
          "name": "name",
          "type": "string"
        },
        {
          "internalType": "string",
          "name": "description",
          "type": "string"
        },
        {
          "internalType": "uint256",
          "name": "price",
          "type": "uint256"
        },
        {
          "internalType": "address",
          "name": "seller",
          "type": "address"
        },
        {
          "internalType": "bool",
          "name": "forSale",
          "type": "bool"
        }
      ],
      "stateMutability": "view",
      "type": "function"
    },
    {
      "inputs": [
        {
          "internalType": "address",
          "name": "owner",
          "type": "address"
        },
        {
          "internalType": "address",
          "name": "operator",
          "type": "address"
        }
      ],
      "name": "isApprovedForAll",
      "outputs": [
        {
          "internalType": "bool",
          "name": "",
          "type": "bool"
        }
      ],
      "stateMutability": "view",
      "type": "function"
    },
    {
      "inputs": [
        {
          "internalType": "string",
          "name": "name",
          "type": "string"
        },
        {
          "internalType": "string",
          "name": "description",
          "type": "string"
        },
        {
          "internalType": "uint256",
          "name": "price",
          "type": "uint256"
        }
      ],
      "name": "mintAsset",
      "outputs": [],
      "stateMutability": "nonpayable",
      "type": "function"
    },
    {
      "inputs": [],
      "name": "name",
      "outputs": [
        {
          "internalType": "string",
          "name": "",
          "type": "string"
        }
      ],
      "stateMutability": "view",
      "type": "function"
    },
    {
      "inputs": [],
      "name": "owner",
      "outputs": [
        {
          "internalType": "address",
          "name": "",
          "type": "address"
        }
      ],
      "stateMutability": "view",
      "type": "function"
    },
    {
      "inputs": [
        {
          "internalType": "uint256",
          "name": "tokenId",
          "type": "uint256"
        }
      ],
      "name": "ownerOf",
      "outputs": [
        {
          "internalType": "address",
          "name": "",
          "type": "address"
        }
      ],
      "stateMutability": "view",
      "type": "function"
    },
    {
      "inputs": [],
      "name": "renounceOwnership",
      "outputs": [],
      "stateMutability": "nonpayable",
      "type": "function"
    },
    {
      "inputs": [
        {
          "internalType": "address",
          "name": "from",
          "type": "address"
        },
        {
          "internalType": "address",
          "name": "to",
          "type": "address"
        },
        {
          "internalType": "uint256",
          "name": "tokenId",
          "type": "uint256"
        }
      ],
      "name": "safeTransferFrom",
      "outputs": [],
      "stateMutability": "nonpayable",
      "type": "function"
    },
    {
      "inputs": [
        {
          "internalType": "address",
          "name": "from",
          "type": "address"
        },
        {
          "internalType": "address",
          "name": "to",
          "type": "address"
        },
        {
          "internalType": "uint256",
          "name": "tokenId",
          "type": "uint256"
        },
        {
          "internalType": "bytes",
          "name": "data",
          "type": "bytes"
        }
      ],
      "name": "safeTransferFrom",
      "outputs": [],
      "stateMutability": "nonpayable",
      "type": "function"
    },
    {
      "inputs": [
        {
          "internalType": "address",
          "name": "operator",
          "type": "address"
        },
        {
          "internalType": "bool",
          "name": "approved",
          "type": "bool"
        }
      ],
      "name": "setApprovalForAll",
      "outputs": [],
      "stateMutability": "nonpayable",
      "type": "function"
    },
    {
      "inputs": [
        {
          "internalType": "bytes4",
          "name": "interfaceId",
          "type": "bytes4"
        }
      ],
      "name": "supportsInterface",
      "outputs": [
        {
          "internalType": "bool",
          "name": "",
          "type": "bool"
        }
      ],
      "stateMutability": "view",
      "type": "function"
    },
    {
      "inputs": [],
      "name": "symbol",
      "outputs": [
        {
          "internalType": "string",
          "name": "",
          "type": "string"
        }
      ],
      "stateMutability": "view",
      "type": "function"
    },
    {
      "inputs": [
        {
          "internalType": "uint256",
          "name": "tokenId",
          "type": "uint256"
        }
      ],
      "name": "tokenURI",
      "outputs": [
        {
          "internalType": "string",
          "name": "",
          "type": "string"
        }
      ],
      "stateMutability": "view",
      "type": "function"
    },
    {
      "inputs": [],
      "name": "totalMinted",
      "outputs": [
        {
          "internalType": "uint256",
          "name": "",
          "type": "uint256"
        }
      ],
      "stateMutability": "view",
      "type": "function"
    },
    {
      "inputs": [
        {
          "internalType": "address",
          "name": "from",
          "type": "address"
        },
        {
          "internalType": "address",
          "name": "to",
          "type": "address"
        },
        {
          "internalType": "uint256",
          "name": "tokenId",
          "type": "uint256"
        }
      ],
      "name": "transferFrom",
      "outputs": [],
      "stateMutability": "nonpayable",
      "type": "function"
    },
    {
      "inputs": [
        {
          "internalType": "address",
          "name": "newOwner",
          "type": "address"
        }
      ],
      "name": "transferOwnership",
      "outputs": [],
      "stateMutability": "nonpayable",
      "type": "function"
    },
    {
      "inputs": [
        {
          "internalType": "uint256",
          "name": "tokenId",
          "type": "uint256"
        },
        {
          "internalType": "uint256",
          "name": "newPrice",
          "type": "uint256"
        },
        {
          "internalType": "bool",
          "name": "forSale",
          "type": "bool"
        }
      ],
      "name": "updateListing",
      "outputs": [],
      "stateMutability": "nonpayable",
      "type": "function"
    }
  ],
  "bytecode": "0x608060405234801561001057600080fd5b506040518060400160405280600981526020017f5265616c417373657400000000000000000000000000000000000000000000008152506040518060400160405280600581526020017f52414e4654000000000000000000000000000000000000000000000000000000815250816000908161008c91906103de565b50806001908161009c91906103de565b5050506100bb6100b06100c060201b60201c565b6100c860201b60201c565b6104b0565b600033905090565b6000600660009054906101000a900473ffffffffffffffffffffffffffffffffffffffff16905081600660006101000a81548173ffffffffffffffffffffffffffffffffffffffff021916908373ffffffffffffffffffffffffffffffffffffffff1602179055508173ffffffffffffffffffffffffffffffffffffffff168173ffffffffffffffffffffffffffffffffffffffff167f8be0079c531659141344cd1fd0a4f28419497f9722a3daafe3b4186f6b6457e060405160405180910390a35050565b600081519050919050565b7f4e487b7100000000000000000000000000000000000000000000000000000000600052604160045260246000fd5b7f4e487b7100000000000000000000000000000000000000000000000000000000600052602260045260246000fd5b6000600282049050600182168061020f57607f821691505b602082108103610222576102216101c8565b5b50919050565b60008190508160005260206000209050919050565b60006020601f8301049050919050565b600082821b905092915050565b60006008830261028a7fffffffffffffffffffffffffffffffffffffffffffffffffffffffffffffffff8261024d565b610294868361024d565b95508019841693508086168417925050509392505050565b6000819050919050565b6000819050919050565b60006102db6102d66102d1846102ac565b6102b6565b6102ac565b9050919050565b6000819050919050565b6102f5836102c0565b610309610301826102e2565b84845461025a565b825550505050565b600090565b61031e610311565b6103298184846102ec565b505050565b5b8181101561034d57610342600082610316565b60018101905061032f565b5050565b601f8211156103925761036381610228565b61036c8461023d565b8101602085101561037b578190505b61038f6103878561023d565b83018261032e565b50505b505050565b600082821c905092915050565b60006103b560001984600802610397565b1980831691505092915050565b60006103ce83836103a4565b9150826002028217905092915050565b6103e78261018e565b67ffffffffffffffff811115610400576103ff610199565b5b61040a82546101f7565b610415828285610351565b600060209050601f8311600181146104485760008415610436578287015190505b61044085826103c2565b8655506104a8565b601f19841661045686610228565b60005b8281101561047e57848901518255600182019150602085019450602081019050610459565b8683101561049b5784890151610497601f8916826103a4565b8355505b6001600288020188555050505b505050505050565b6139f8806104bf6000396000f3fe6080604052600436106101355760003560e01c806395d89b41116100ab578063c87b56dd1161006f578063c87b56dd14610403578063cf35bdd014610440578063dda12b4b14610481578063e985e9c5146104aa578063eac8f5b8146104e7578063f2fde38b1461052857610135565b806395d89b41146103325780639a681aeb1461035d578063a22cb46514610386578063a2309ff8146103af578063b88d4fde146103da57610135565b806323b872dd116100fd57806323b872dd1461022457806342842e0e1461024d5780636352211e1461027657806370a08231146102b3578063715018a6146102f05780638da5cb5b1461030757610135565b806301ffc9a71461013a57806306fdde0314610177578063081812fc146101a2578063095ea7b3146101df578063110d35b814610208575b600080fd5b34801561014657600080fd5b50610161600480360381019061015c9190612566565b610551565b60405161016e91906125ae565b60405180910390f35b34801561018357600080fd5b5061018c610633565b6040516101999190612659565b60405180910390f35b3480156101ae57600080fd5b506101c960048036038101906101c491906126b1565b6106c5565b6040516101d6919061271f565b60405180910390f35b3480156101eb57600080fd5b5061020660048036038101906102019190612766565b61070b565b005b610222600480360381019061021d91906126b1565b610822565b005b34801561023057600080fd5b5061024b600480360381019061024691906127a6565b610b50565b005b34801561025957600080fd5b50610274600480360381019061026f91906127a6565b610bb0565b005b34801561028257600080fd5b5061029d600480360381019061029891906126b1565b610bd0565b6040516102aa919061271f565b60405180910390f35b3480156102bf57600080fd5b506102da60048036038101906102d591906127f9565b610c56565b6040516102e79190612835565b60405180910390f35b3480156102fc57600080fd5b50610305610d0d565b005b34801561031357600080fd5b5061031c610d21565b604051610329919061271f565b60405180910390f35b34801561033e57600080fd5b50610347610d4b565b6040516103549190612659565b60405180910390f35b34801561036957600080fd5b50610384600480360381019061037f9190612985565b610ddd565b005b34801561039257600080fd5b506103ad60048036038101906103a89190612a3c565b610f3b565b005b3480156103bb57600080fd5b506103c4610f51565b6040516103d19190612835565b60405180910390f35b3480156103e657600080fd5b5061040160048036038101906103fc9190612b1d565b610f62565b005b34801561040f57600080fd5b5061042a600480360381019061042591906126b1565b610fc4565b6040516104379190612659565b60405180910390f35b34801561044c57600080fd5b50610467600480360381019061046291906126b1565b61102c565b604051610478959493929190612bc1565b60405180910390f35b34801561048d57600080fd5b506104a860048036038101906104a39190612c22565b61119f565b005b3480156104b657600080fd5b506104d160048036038101906104cc9190612c75565b6112b8565b6040516104de91906125ae565b60405180910390f35b3480156104f357600080fd5b5061050e600480360381019061050991906126b1565b61134c565b60405161051f959493929190612cb5565b60405180910390f35b34801561053457600080fd5b5061054f600480360381019061054a91906127f9565b611541565b005b60007f80ac58cd000000000000000000000000000000000000000000000000000000007bffffffffffffffffffffffffffffffffffffffffffffffffffffffff1916827bffffffffffffffffffffffffffffffffffffffffffffffffffffffff1916148061061c57507f5b5e139f000000000000000000000000000000000000000000000000000000007bffffffffffffffffffffffffffffffffffffffffffffffffffffffff1916827bffffffffffffffffffffffffffffffffffffffffffffffffffffffff1916145b8061062c575061062b826115c4565b5b9050919050565b60606000805461064290612d45565b80601f016020809104026020016040519081016040528092919081815260200182805461066e90612d45565b80156106bb5780601f10610690576101008083540402835291602001916106bb565b820191906000526020600020905b81548152906001019060200180831161069e57829003601f168201915b5050505050905090565b60006106d08261162e565b6004600083815260200190815260200160002060009054906101000a900473ffffffffffffffffffffffffffffffffffffffff169050919050565b600061071682610bd0565b90508073ffffffffffffffffffffffffffffffffffffffff168373ffffffffffffffffffffffffffffffffffffffff1603610786576040517f08c379a000000000000000000000000000000000000000000000000000000000815260040161077d90612de8565b60405180910390fd5b8073ffffffffffffffffffffffffffffffffffffffff166107a5611679565b73ffffffffffffffffffffffffffffffffffffffff1614806107d457506107d3816107ce611679565b6112b8565b5b610813576040517f08c379a000000000000000000000000000000000000000000000000000000000815260040161080a90612e7a565b60405180910390fd5b61081d8383611681565b505050565b6000600860008381526020019081526020016000206040518060a001604052908160008201805461085290612d45565b80601f016020809104026020016040519081016040528092919081815260200182805461087e90612d45565b80156108cb5780601f106108a0576101008083540402835291602001916108cb565b820191906000526020600020905b8154815290600101906020018083116108ae57829003601f168201915b505050505081526020016001820180546108e490612d45565b80601f016020809104026020016040519081016040528092919081815260200182805461091090612d45565b801561095d5780601f106109325761010080835404028352916020019161095d565b820191906000526020600020905b81548152906001019060200180831161094057829003601f168201915b50505050508152602001600282015481526020016003820160009054906101000a900473ffffffffffffffffffffffffffffffffffffffff1673ffffffffffffffffffffffffffffffffffffffff1673ffffffffffffffffffffffffffffffffffffffff1681526020016003820160149054906101000a900460ff16151515158152505090508060800151610a27576040517f08c379a0000000000000000000000000000000000000000000000000000000008152600401610a1e90612ee6565b60405180910390fd5b8060400151341015610a6e576040517f08c379a0000000000000000000000000000000000000000000000000000000008152600401610a6590612f52565b60405180910390fd5b806060015173ffffffffffffffffffffffffffffffffffffffff166108fc349081150290604051600060405180830381858888f19350505050158015610ab8573d6000803e3d6000fd5b50610ac88160600151338461173a565b60006008600084815260200190815260200160002060030160146101000a81548160ff021916908315150217905550336008600084815260200190815260200160002060030160006101000a81548173ffffffffffffffffffffffffffffffffffffffff021916908373ffffffffffffffffffffffffffffffffffffffff1602179055505050565b610b61610b5b611679565b82611a33565b610ba0576040517f08c379a0000000000000000000000000000000000000000000000000000000008152600401610b9790612fe4565b60405180910390fd5b610bab83838361173a565b505050565b610bcb83838360405180602001604052806000815250610f62565b505050565b600080610bdc83611ac8565b9050600073ffffffffffffffffffffffffffffffffffffffff168173ffffffffffffffffffffffffffffffffffffffff1603610c4d576040517f08c379a0000000000000000000000000000000000000000000000000000000008152600401610c4490613050565b60405180910390fd5b80915050919050565b60008073ffffffffffffffffffffffffffffffffffffffff168273ffffffffffffffffffffffffffffffffffffffff1603610cc6576040517f08c379a0000000000000000000000000000000000000000000000000000000008152600401610cbd906130e2565b60405180910390fd5b600360008373ffffffffffffffffffffffffffffffffffffffff1673ffffffffffffffffffffffffffffffffffffffff168152602001908152602001600020549050919050565b610d15611b05565b610d1f6000611b83565b565b6000600660009054906101000a900473ffffffffffffffffffffffffffffffffffffffff16905090565b606060018054610d5a90612d45565b80601f0160208091040260200160405190810160405280929190818152602001828054610d8690612d45565b8015610dd35780601f10610da857610100808354040283529160200191610dd3565b820191906000526020600020905b815481529060010190602001808311610db657829003601f168201915b5050505050905090565b60008111610e20576040517f08c379a0000000000000000000000000000000000000000000000000000000008152600401610e179061314e565b60405180910390fd5b610e2a6007611c49565b6000610e366007611c5f565b9050610e423382611c6d565b6040518060a001604052808581526020018481526020018381526020013373ffffffffffffffffffffffffffffffffffffffff16815260200160011515815250600860008381526020019081526020016000206000820151816000019081610eaa919061331a565b506020820151816001019081610ec0919061331a565b506040820151816002015560608201518160030160006101000a81548173ffffffffffffffffffffffffffffffffffffffff021916908373ffffffffffffffffffffffffffffffffffffffff16021790555060808201518160030160146101000a81548160ff02191690831515021790555090505050505050565b610f4d610f46611679565b8383611c8b565b5050565b6000610f5d6007611c5f565b905090565b610f73610f6d611679565b83611a33565b610fb2576040517f08c379a0000000000000000000000000000000000000000000000000000000008152600401610fa990612fe4565b60405180910390fd5b610fbe84848484611df7565b50505050565b6060610fcf8261162e565b6000610fd9611e53565b90506000815111610ff95760405180602001604052806000815250611024565b8061100384611e6a565b604051602001611014929190613428565b6040516020818303038152906040525b915050919050565b600860205280600052604060002060009150905080600001805461104f90612d45565b80601f016020809104026020016040519081016040528092919081815260200182805461107b90612d45565b80156110c85780601f1061109d576101008083540402835291602001916110c8565b820191906000526020600020905b8154815290600101906020018083116110ab57829003601f168201915b5050505050908060010180546110dd90612d45565b80601f016020809104026020016040519081016040528092919081815260200182805461110990612d45565b80156111565780601f1061112b57610100808354040283529160200191611156565b820191906000526020600020905b81548152906001019060200180831161113957829003601f168201915b5050505050908060020154908060030160009054906101000a900473ffffffffffffffffffffffffffffffffffffffff16908060030160149054906101000a900460ff16905085565b3373ffffffffffffffffffffffffffffffffffffffff166111bf84610bd0565b73ffffffffffffffffffffffffffffffffffffffff1614611215576040517f08c379a000000000000000000000000000000000000000000000000000000000815260040161120c90613498565b60405180910390fd5b816008600085815260200190815260200160002060020181905550806008600085815260200190815260200160002060030160146101000a81548160ff021916908315150217905550336008600085815260200190815260200160002060030160006101000a81548173ffffffffffffffffffffffffffffffffffffffff021916908373ffffffffffffffffffffffffffffffffffffffff160217905550505050565b6000600560008473ffffffffffffffffffffffffffffffffffffffff1673ffffffffffffffffffffffffffffffffffffffff16815260200190815260200160002060008373ffffffffffffffffffffffffffffffffffffffff1673ffffffffffffffffffffffffffffffffffffffff16815260200190815260200160002060009054906101000a900460ff16905092915050565b606080600080600080600860008881526020019081526020016000206040518060a001604052908160008201805461138390612d45565b80601f01602080910402602001604051908101604052809291908181526020018280546113af90612d45565b80156113fc5780601f106113d1576101008083540402835291602001916113fc565b820191906000526020600020905b8154815290600101906020018083116113df57829003601f168201915b5050505050815260200160018201805461141590612d45565b80601f016020809104026020016040519081016040528092919081815260200182805461144190612d45565b801561148e5780601f106114635761010080835404028352916020019161148e565b820191906000526020600020905b81548152906001019060200180831161147157829003601f168201915b50505050508152602001600282015481526020016003820160009054906101000a900473ffffffffffffffffffffffffffffffffffffffff1673ffffffffffffffffffffffffffffffffffffffff1673ffffffffffffffffffffffffffffffffffffffff1681526020016003820160149054906101000a900460ff161515151581525050905080600001518160200151826040015183606001518460800151955095509550955095505091939590929450565b611549611b05565b600073ffffffffffffffffffffffffffffffffffffffff168173ffffffffffffffffffffffffffffffffffffffff16036115b8576040517f08c379a00000000000000000000000000000000000000000000000000000000081526004016115af9061352a565b60405180910390fd5b6115c181611b83565b50565b60007f01ffc9a7000000000000000000000000000000000000000000000000000000007bffffffffffffffffffffffffffffffffffffffffffffffffffffffff1916827bffffffffffffffffffffffffffffffffffffffffffffffffffffffff1916149050919050565b61163781611f38565b611676576040517f08c379a000000000000000000000000000000000000000000000000000000000815260040161166d90613050565b60405180910390fd5b50565b600033905090565b816004600083815260200190815260200160002060006101000a81548173ffffffffffffffffffffffffffffffffffffffff021916908373ffffffffffffffffffffffffffffffffffffffff160217905550808273ffffffffffffffffffffffffffffffffffffffff166116f483610bd0565b73ffffffffffffffffffffffffffffffffffffffff167f8c5be1e5ebec7d5bd14f71427d1e84f3dd0314c0f7b2291e5b200ac8c7c3b92560405160405180910390a45050565b8273ffffffffffffffffffffffffffffffffffffffff1661175a82610bd0565b73ffffffffffffffffffffffffffffffffffffffff16146117b0576040517f08c379a00000000000000000000000000000000000000000000000000000000081526004016117a7906135bc565b60405180910390fd5b600073ffffffffffffffffffffffffffffffffffffffff168273ffffffffffffffffffffffffffffffffffffffff160361181f576040517f08c379a00000000000000000000000000000000000000000000000000000000081526004016118169061364e565b60405180910390fd5b61182c8383836001611f79565b8273ffffffffffffffffffffffffffffffffffffffff1661184c82610bd0565b73ffffffffffffffffffffffffffffffffffffffff16146118a2576040517f08c379a0000000000000000000000000000000000000000000000000000000008152600401611899906135bc565b60405180910390fd5b6004600082815260200190815260200160002060006101000a81549073ffffffffffffffffffffffffffffffffffffffff02191690556001600360008573ffffffffffffffffffffffffffffffffffffffff1673ffffffffffffffffffffffffffffffffffffffff168152602001908152602001600020600082825403925050819055506001600360008473ffffffffffffffffffffffffffffffffffffffff1673ffffffffffffffffffffffffffffffffffffffff16815260200190815260200160002060008282540192505081905550816002600083815260200190815260200160002060006101000a81548173ffffffffffffffffffffffffffffffffffffffff021916908373ffffffffffffffffffffffffffffffffffffffff160217905550808273ffffffffffffffffffffffffffffffffffffffff168473ffffffffffffffffffffffffffffffffffffffff167fddf252ad1be2c89b69c2b068fc378daa952ba7f163c4a11628f55a4df523b3ef60405160405180910390a4611a2e8383836001611f7f565b505050565b600080611a3f83610bd0565b90508073ffffffffffffffffffffffffffffffffffffffff168473ffffffffffffffffffffffffffffffffffffffff161480611a815750611a8081856112b8565b5b80611abf57508373ffffffffffffffffffffffffffffffffffffffff16611aa7846106c5565b73ffffffffffffffffffffffffffffffffffffffff16145b91505092915050565b60006002600083815260200190815260200160002060009054906101000a900473ffffffffffffffffffffffffffffffffffffffff169050919050565b611b0d611679565b73ffffffffffffffffffffffffffffffffffffffff16611b2b610d21565b73ffffffffffffffffffffffffffffffffffffffff1614611b81576040517f08c379a0000000000000000000000000000000000000000000000000000000008152600401611b78906136ba565b60405180910390fd5b565b6000600660009054906101000a900473ffffffffffffffffffffffffffffffffffffffff16905081600660006101000a81548173ffffffffffffffffffffffffffffffffffffffff021916908373ffffffffffffffffffffffffffffffffffffffff1602179055508173ffffffffffffffffffffffffffffffffffffffff168173ffffffffffffffffffffffffffffffffffffffff167f8be0079c531659141344cd1fd0a4f28419497f9722a3daafe3b4186f6b6457e060405160405180910390a35050565b6001816000016000828254019250508190555050565b600081600001549050919050565b611c87828260405180602001604052806000815250611f85565b5050565b8173ffffffffffffffffffffffffffffffffffffffff168373ffffffffffffffffffffffffffffffffffffffff1603611cf9576040517f08c379a0000000000000000000000000000000000000000000000000000000008152600401611cf090613726565b60405180910390fd5b80600560008573ffffffffffffffffffffffffffffffffffffffff1673ffffffffffffffffffffffffffffffffffffffff16815260200190815260200160002060008473ffffffffffffffffffffffffffffffffffffffff1673ffffffffffffffffffffffffffffffffffffffff16815260200190815260200160002060006101000a81548160ff0219169083151502179055508173ffffffffffffffffffffffffffffffffffffffff168373ffffffffffffffffffffffffffffffffffffffff167f17307eab39ab6107e8899845ad3d59bd9653f200f220920489ca2b5937696c3183604051611dea91906125ae565b60405180910390a3505050565b611e0284848461173a565b611e0e84848484611fe0565b611e4d576040517f08c379a0000000000000000000000000000000000000000000000000000000008152600401611e44906137b8565b60405180910390fd5b50505050565b606060405180602001604052806000815250905090565b606060006001611e7984612167565b01905060008167ffffffffffffffff811115611e9857611e9761285a565b5b6040519080825280601f01601f191660200182016040528015611eca5781602001600182028036833780820191505090505b509050600082602001820190505b600115611f2d578080600190039150507f3031323334353637383961626364656600000000000000000000000000000000600a86061a8153600a8581611f2157611f206137d8565b5b04945060008503611ed8575b819350505050919050565b60008073ffffffffffffffffffffffffffffffffffffffff16611f5a83611ac8565b73ffffffffffffffffffffffffffffffffffffffff1614159050919050565b50505050565b50505050565b611f8f83836122ba565b611f9c6000848484611fe0565b611fdb576040517f08c379a0000000000000000000000000000000000000000000000000000000008152600401611fd2906137b8565b60405180910390fd5b505050565b60006120018473ffffffffffffffffffffffffffffffffffffffff166124d7565b1561215a578373ffffffffffffffffffffffffffffffffffffffff1663150b7a0261202a611679565b8786866040518563ffffffff1660e01b815260040161204c949392919061385c565b6020604051808303816000875af192505050801561208857506040513d601f19601f8201168201806040525081019061208591906138bd565b60015b61210a573d80600081146120b8576040519150601f19603f3d011682016040523d82523d6000602084013e6120bd565b606091505b506000815103612102576040517f08c379a00000000000000000000000000000000000000000000000000000000081526004016120f9906137b8565b60405180910390fd5b805181602001fd5b63150b7a0260e01b7bffffffffffffffffffffffffffffffffffffffffffffffffffffffff1916817bffffffffffffffffffffffffffffffffffffffffffffffffffffffff19161491505061215f565b600190505b949350505050565b600080600090507a184f03e93ff9f4daa797ed6e38ed64bf6a1f01000000000000000083106121c5577a184f03e93ff9f4daa797ed6e38ed64bf6a1f01000000000000000083816121bb576121ba6137d8565b5b0492506040810190505b6d04ee2d6d415b85acef81000000008310612202576d04ee2d6d415b85acef810000000083816121f8576121f76137d8565b5b0492506020810190505b662386f26fc10000831061223157662386f26fc100008381612227576122266137d8565b5b0492506010810190505b6305f5e100831061225a576305f5e10083816122505761224f6137d8565b5b0492506008810190505b612710831061227f576127108381612275576122746137d8565b5b0492506004810190505b606483106122a25760648381612298576122976137d8565b5b0492506002810190505b600a83106122b1576001810190505b80915050919050565b600073ffffffffffffffffffffffffffffffffffffffff168273ffffffffffffffffffffffffffffffffffffffff1603612329576040517f08c379a000000000000000000000000000000000000000000000000000000000815260040161232090613936565b60405180910390fd5b61233281611f38565b15612372576040517f08c379a0000000000000000000000000000000000000000000000000000000008152600401612369906139a2565b60405180910390fd5b612380600083836001611f79565b61238981611f38565b156123c9576040517f08c379a00000000000000000000000000000000000000000000000000000000081526004016123c0906139a2565b60405180910390fd5b6001600360008473ffffffffffffffffffffffffffffffffffffffff1673ffffffffffffffffffffffffffffffffffffffff16815260200190815260200160002060008282540192505081905550816002600083815260200190815260200160002060006101000a81548173ffffffffffffffffffffffffffffffffffffffff021916908373ffffffffffffffffffffffffffffffffffffffff160217905550808273ffffffffffffffffffffffffffffffffffffffff16600073ffffffffffffffffffffffffffffffffffffffff167fddf252ad1be2c89b69c2b068fc378daa952ba7f163c4a11628f55a4df523b3ef60405160405180910390a46124d3600083836001611f7f565b5050565b6000808273ffffffffffffffffffffffffffffffffffffffff163b119050919050565b6000604051905090565b600080fd5b600080fd5b60007fffffffff0000000000000000000000000000000000000000000000000000000082169050919050565b6125438161250e565b811461254e57600080fd5b50565b6000813590506125608161253a565b92915050565b60006020828403121561257c5761257b612504565b5b600061258a84828501612551565b91505092915050565b60008115159050919050565b6125a881612593565b82525050565b60006020820190506125c3600083018461259f565b92915050565b600081519050919050565b600082825260208201905092915050565b60005b838110156126035780820151818401526020810190506125e8565b60008484015250505050565b6000601f19601f8301169050919050565b600061262b826125c9565b61263581856125d4565b93506126458185602086016125e5565b61264e8161260f565b840191505092915050565b600060208201905081810360008301526126738184612620565b905092915050565b6000819050919050565b61268e8161267b565b811461269957600080fd5b50565b6000813590506126ab81612685565b92915050565b6000602082840312156126c7576126c6612504565b5b60006126d58482850161269c565b91505092915050565b600073ffffffffffffffffffffffffffffffffffffffff82169050919050565b6000612709826126de565b9050919050565b612719816126fe565b82525050565b60006020820190506127346000830184612710565b92915050565b612743816126fe565b811461274e57600080fd5b50565b6000813590506127608161273a565b92915050565b6000806040838503121561277d5761277c612504565b5b600061278b85828601612751565b925050602061279c8582860161269c565b9150509250929050565b6000806000606084860312156127bf576127be612504565b5b60006127cd86828701612751565b93505060206127de86828701612751565b92505060406127ef8682870161269c565b9150509250925092565b60006020828403121561280f5761280e612504565b5b600061281d84828501612751565b91505092915050565b61282f8161267b565b82525050565b600060208201905061284a6000830184612826565b92915050565b600080fd5b600080fd5b7f4e487b7100000000000000000000000000000000000000000000000000000000600052604160045260246000fd5b6128928261260f565b810181811067ffffffffffffffff821117156128b1576128b061285a565b5b80604052505050565b60006128c46124fa565b90506128d08282612889565b919050565b600067ffffffffffffffff8211156128f0576128ef61285a565b5b6128f98261260f565b9050602081019050919050565b82818337600083830152505050565b6000612928612923846128d5565b6128ba565b90508281526020810184848401111561294457612943612855565b5b61294f848285612906565b509392505050565b600082601f83011261296c5761296b612850565b5b813561297c848260208601612915565b91505092915050565b60008060006060848603121561299e5761299d612504565b5b600084013567ffffffffffffffff8111156129bc576129bb612509565b5b6129c886828701612957565b935050602084013567ffffffffffffffff8111156129e9576129e8612509565b5b6129f586828701612957565b9250506040612a068682870161269c565b9150509250925092565b612a1981612593565b8114612a2457600080fd5b50565b600081359050612a3681612a10565b92915050565b60008060408385031215612a5357612a52612504565b5b6000612a6185828601612751565b9250506020612a7285828601612a27565b9150509250929050565b600067ffffffffffffffff821115612a9757612a9661285a565b5b612aa08261260f565b9050602081019050919050565b6000612ac0612abb84612a7c565b6128ba565b905082815260208101848484011115612adc57612adb612855565b5b612ae7848285612906565b509392505050565b600082601f830112612b0457612b03612850565b5b8135612b14848260208601612aad565b91505092915050565b60008060008060808587031215612b3757612b36612504565b5b6000612b4587828801612751565b9450506020612b5687828801612751565b9350506040612b678782880161269c565b925050606085013567ffffffffffffffff811115612b8857612b87612509565b5b612b9487828801612aef565b91505092959194509250565b6000612bab826126de565b9050919050565b612bbb81612ba0565b82525050565b600060a0820190508181036000830152612bdb8188612620565b90508181036020830152612bef8187612620565b9050612bfe6040830186612826565b612c0b6060830185612bb2565b612c18608083018461259f565b9695505050505050565b600080600060608486031215612c3b57612c3a612504565b5b6000612c498682870161269c565b9350506020612c5a8682870161269c565b9250506040612c6b86828701612a27565b9150509250925092565b60008060408385031215612c8c57612c8b612504565b5b6000612c9a85828601612751565b9250506020612cab85828601612751565b9150509250929050565b600060a0820190508181036000830152612ccf8188612620565b90508181036020830152612ce38187612620565b9050612cf26040830186612826565b612cff6060830185612710565b612d0c608083018461259f565b9695505050505050565b7f4e487b7100000000000000000000000000000000000000000000000000000000600052602260045260246000fd5b60006002820490506001821680612d5d57607f821691505b602082108103612d7057612d6f612d16565b5b50919050565b7f4552433732313a20617070726f76616c20746f2063757272656e74206f776e6560008201527f7200000000000000000000000000000000000000000000000000000000000000602082015250565b6000612dd26021836125d4565b9150612ddd82612d76565b604082019050919050565b60006020820190508181036000830152612e0181612dc5565b9050919050565b7f4552433732313a20617070726f76652063616c6c6572206973206e6f7420746f60008201527f6b656e206f776e6572206f7220617070726f76656420666f7220616c6c000000602082015250565b6000612e64603d836125d4565b9150612e6f82612e08565b604082019050919050565b60006020820190508181036000830152612e9381612e57565b9050919050565b7f4173736574206e6f7420666f722073616c650000000000000000000000000000600082015250565b6000612ed06012836125d4565b9150612edb82612e9a565b602082019050919050565b60006020820190508181036000830152612eff81612ec3565b9050919050565b7f4e6f7420656e6f75676820455448000000000000000000000000000000000000600082015250565b6000612f3c600e836125d4565b9150612f4782612f06565b602082019050919050565b60006020820190508181036000830152612f6b81612f2f565b9050919050565b7f4552433732313a2063616c6c6572206973206e6f7420746f6b656e206f776e6560008201527f72206f7220617070726f76656400000000000000000000000000000000000000602082015250565b6000612fce602d836125d4565b9150612fd982612f72565b604082019050919050565b60006020820190508181036000830152612ffd81612fc1565b9050919050565b7f4552433732313a20696e76616c696420746f6b656e2049440000000000000000600082015250565b600061303a6018836125d4565b915061304582613004565b602082019050919050565b600060208201905081810360008301526130698161302d565b9050919050565b7f4552433732313a2061646472657373207a65726f206973206e6f74206120766160008201527f6c6964206f776e65720000000000000000000000000000000000000000000000602082015250565b60006130cc6029836125d4565b91506130d782613070565b604082019050919050565b600060208201905081810360008301526130fb816130bf565b9050919050565b7f5072696365206d757374206265203e2030000000000000000000000000000000600082015250565b60006131386011836125d4565b915061314382613102565b602082019050919050565b600060208201905081810360008301526131678161312b565b9050919050565b60008190508160005260206000209050919050565b60006020601f8301049050919050565b600082821b905092915050565b6000600883026131d07fffffffffffffffffffffffffffffffffffffffffffffffffffffffffffffffff82613193565b6131da8683613193565b95508019841693508086168417925050509392505050565b6000819050919050565b600061321761321261320d8461267b565b6131f2565b61267b565b9050919050565b6000819050919050565b613231836131fc565b61324561323d8261321e565b8484546131a0565b825550505050565b600090565b61325a61324d565b613265818484613228565b505050565b5b818110156132895761327e600082613252565b60018101905061326b565b5050565b601f8211156132ce5761329f8161316e565b6132a884613183565b810160208510156132b7578190505b6132cb6132c385613183565b83018261326a565b50505b505050565b600082821c905092915050565b60006132f1600019846008026132d3565b1980831691505092915050565b600061330a83836132e0565b9150826002028217905092915050565b613323826125c9565b67ffffffffffffffff81111561333c5761333b61285a565b5b6133468254612d45565b61335182828561328d565b600060209050601f8311600181146133845760008415613372578287015190505b61337c85826132fe565b8655506133e4565b601f1984166133928661316e565b60005b828110156133ba57848901518255600182019150602085019450602081019050613395565b868310156133d757848901516133d3601f8916826132e0565b8355505b6001600288020188555050505b505050505050565b600081905092915050565b6000613402826125c9565b61340c81856133ec565b935061341c8185602086016125e5565b80840191505092915050565b600061343482856133f7565b915061344082846133f7565b91508190509392505050565b7f4e6f7420746865206f776e657200000000000000000000000000000000000000600082015250565b6000613482600d836125d4565b915061348d8261344c565b602082019050919050565b600060208201905081810360008301526134b181613475565b9050919050565b7f4f776e61626c653a206e6577206f776e657220697320746865207a65726f206160008201527f6464726573730000000000000000000000000000000000000000000000000000602082015250565b60006135146026836125d4565b915061351f826134b8565b604082019050919050565b6000602082019050818103600083015261354381613507565b9050919050565b7f4552433732313a207472616e736665722066726f6d20696e636f72726563742060008201527f6f776e6572000000000000000000000000000000000000000000000000000000602082015250565b60006135a66025836125d4565b91506135b18261354a565b604082019050919050565b600060208201905081810360008301526135d581613599565b9050919050565b7f4552433732313a207472616e7366657220746f20746865207a65726f2061646460008201527f7265737300000000000000000000000000000000000000000000000000000000602082015250565b60006136386024836125d4565b9150613643826135dc565b604082019050919050565b600060208201905081810360008301526136678161362b565b9050919050565b7f4f776e61626c653a2063616c6c6572206973206e6f7420746865206f776e6572600082015250565b60006136a46020836125d4565b91506136af8261366e565b602082019050919050565b600060208201905081810360008301526136d381613697565b9050919050565b7f4552433732313a20617070726f766520746f2063616c6c657200000000000000600082015250565b60006137106019836125d4565b915061371b826136da565b602082019050919050565b6000602082019050818103600083015261373f81613703565b9050919050565b7f4552433732313a207472616e7366657220746f206e6f6e20455243373231526560008201527f63656976657220696d706c656d656e7465720000000000000000000000000000602082015250565b60006137a26032836125d4565b91506137ad82613746565b604082019050919050565b600060208201905081810360008301526137d181613795565b9050919050565b7f4e487b7100000000000000000000000000000000000000000000000000000000600052601260045260246000fd5b600081519050919050565b600082825260208201905092915050565b600061382e82613807565b6138388185613812565b93506138488185602086016125e5565b6138518161260f565b840191505092915050565b60006080820190506138716000830187612710565b61387e6020830186612710565b61388b6040830185612826565b818103606083015261389d8184613823565b905095945050505050565b6000815190506138b78161253a565b92915050565b6000602082840312156138d3576138d2612504565b5b60006138e1848285016138a8565b91505092915050565b7f4552433732313a206d696e7420746f20746865207a65726f2061646472657373600082015250565b60006139206020836125d4565b915061392b826138ea565b602082019050919050565b6000602082019050818103600083015261394f81613913565b9050919050565b7f4552433732313a20746f6b656e20616c7265616479206d696e74656400000000600082015250565b600061398c601c836125d4565b915061399782613956565b602082019050919050565b600060208201905081810360008301526139bb8161397f565b905091905056fea2646970667358221220a51b07883579bda5f3a4ec6e259bdd42e478a58cb8d7d0f3e67c23fd379560af64736f6c634300081c0033",
  "linkReferences": {},
  "deployedLinkReferences": {}
}