{
  "_format": "hh-sol-artifact-1",
  "contractName": "RealAssetNFT",
  "sourceName": "contracts/RealAssetNFT.sol",
  "abi": [
    {
      "inputs": [],
      "stateMutability": "nonpayable",
      "type": "constructor"
    },
    {
      "anonymous": false,
      "inputs": [
        {
          "indexed": true,
          "internalType": "address",
          "name": "owner",
          "type": "address"
        },
        {
          "indexed": true,
          "internalType": "address",
          "name": "approved",
          "type": "address"
        },
        {
          "indexed": true,
          "internalType": "uint256",
          "name": "tokenId",
          "type": "uint256"
        }
      ],
      "name": "Approval",
      "type": "event"
    },
    {
      "anonymous": false,
      "inputs": [
        {
          "indexed": true,
          "internalType": "address",
          "name": "owner",
          "type": "address"
        },
        {
          "indexed": true,
          "internalType": "address",
          "name": "operator",
          "type": "address"
        },
        {
          "indexed": false,
          "internalType": "bool",
          "name": "approved",
          "type": "bool"
        }
      ],
      "name": "ApprovalForAll",
      "type": "event"
    },
    {
      "anonymous": false,
      "inputs": [
        {
          "indexed": true,
          "internalType": "address",
          "name": "previousOwner",
          "type": "address"
        },
        {
          "indexed": true,
          "internalType": "address",
          "name": "newOwner",
          "type": "address"
        }
      ],
      "name": "OwnershipTransferred",
      "type": "event"
    },
    {
      "anonymous": false,
      "inputs": [
        {
          "indexed": true,
          "internalType": "address",
          "name": "from",
          "type": "address"
        },
        {
          "indexed": true,
          "internalType": "address",
          "name": "to",
          "type": "address"
        },
        {
          "indexed": true,
          "internalType": "uint256",
          "name": "tokenId",
          "type": "uint256"
        }
      ],
      "name": "Transfer",
      "type": "event"
    },
    {
      "inputs": [
        {
          "internalType": "address",
          "name": "to",
          "type": "address"
        },
        {
          "internalType": "uint256",
          "name": "tokenId",
          "type": "uint256"
        }
      ],
      "name": "approve",
      "outputs": [],
      "stateMutability": "nonpayable",
      "type": "function"
    },
    {
      "inputs": [
        {
          "internalType": "uint256",
          "name": "",
          "type": "uint256"
        }
      ],
      "name": "assets",
      "outputs": [
        {
          "internalType": "string",
          "name": "name",
          "type": "string"
        },
        {
          "internalType": "string",
          "name": "description",
          "type": "string"
        },
        {
          "internalType": "uint256",
          "name": "price",
          "type": "uint256"
        },
        {
          "internalType": "address payable",
          "name": "seller",
          "type": "address"
        },
        {
          "internalType": "bool",
          "name": "forSale",
          "type": "bool"
        }
      ],
      "stateMutability": "view",
      "type": "function"
    },
    {
      "inputs": [
        {
          "internalType": "address",
          "name": "owner",
          "type": "address"
        }
      ],
      "name": "balanceOf",
      "outputs": [
        {
          "internalType": "uint256",
          "name": "",
          "type": "uint256"
        }
      ],
      "stateMutability": "view",
      "type": "function"
    },
    {
      "inputs": [
        {
          "internalType": "uint256",
          "name": "tokenId",
          "type": "uint256"
        }
      ],
      "name": "buyAsset",
      "outputs": [],
      "stateMutability": "payable",
      "type": "function"
    },
    {
      "inputs": [
        {
          "internalType": "uint256",
          "name": "tokenId",
          "type": "uint256"
        }
      ],
      "name": "getApproved",
      "outputs": [
        {
          "internalType": "address",
          "name": "",
          "type": "address"
        }
      ],
      "stateMutability": "view",
      "type": "function"
    },
    {
      "inputs": [
        {
          "internalType": "uint256",
          "name": "tokenId",
          "type": "uint256"
        }
      ],
      "name": "getAsset",
      "outputs": [
        {
          "internalType": "string",
          "name": "name",
          "type": "string"
        },
        {
          "internalType": "string",
          "name": "description",
          "type": "string"
        },
        {
          "internalType": "uint256",
          "name": "price",
          "type": "uint256"
        },
        {
          "internalType": "address",
          "name": "seller",
          "type": "address"
        },
        {
          "internalType": "bool",
          "name": "forSale",
          "type": "bool"
        }
      ],
      "stateMutability": "view",
      "type": "function"
    },
    {
      "inputs": [
        {
          "internalType": "address",
          "name": "owner",
          "type": "address"
        },
        {
          "internalType": "address",
          "name": "operator",
          "type": "address"
        }
      ],
      "name": "isApprovedForAll",
      "outputs": [
        {
          "internalType": "bool",
          "name": "",
          "type": "bool"
        }
      ],
      "stateMutability": "view",
      "type": "function"
    },
    {
      "inputs": [
        {
          "internalType": "string",
          "name": "name",
          "type": "string"
        },
        {
          "internalType": "string",
          "name": "description",
          "type": "string"
        },
        {
          "internalType": "uint256",
          "name": "price",
          "type": "uint256"
        }
      ],
      "name": "mintAsset",
      "outputs": [],
      "stateMutability": "nonpayable",
      "type": "function"
    },
    {
      "inputs": [],
      "name": "name",
      "outputs": [
        {
          "internalType": "string",
          "name": "",
          "type": "string"
        }
      ],
      "stateMutability": "view",
      "type": "function"
    },
    {
      "inputs": [],
      "name": "owner",
      "outputs": [
        {
          "internalType": "address",
          "name": "",
          "type": "address"
        }
      ],
      "stateMutability": "view",
      "type": "function"
    },
    {
      "inputs": [
        {
          "internalType": "uint256",
          "name": "tokenId",
          "type": "uint256"
        }
      ],
      "name": "ownerOf",
      "outputs": [
        {
          "internalType": "address",
          "name": "",
          "type": "address"
        }
      ],
      "stateMutability": "view",
      "type": "function"
    },
    {
      "inputs": [],
      "name": "renounceOwnership",
      "outputs": [],
      "stateMutability": "nonpayable",
      "type": "function"
    },
    {
      "inputs": [
        {
          "internalType": "address",
          "name": "from",
          "type": "address"
        },
        {
          "internalType": "address",
          "name": "to",
          "type": "address"
        },
        {
          "internalType": "uint256",
          "name": "tokenId",
          "type": "uint256"
        }
      ],
      "name": "safeTransferFrom",
      "outputs": [],
      "stateMutability": "nonpayable",
      "type": "function"
    },
    {
      "inputs": [
        {
          "internalType": "address",
          "name": "from",
          "type": "address"
        },
        {
          "internalType": "address",
          "name": "to",
          "type": "address"
        },
        {
          "internalType": "uint256",
          "name": "tokenId",
          "type": "uint256"
        },
        {
          "internalType": "bytes",
          "name": "data",
          "type": "bytes"
        }
      ],
      "name": "safeTransferFrom",
      "outputs": [],
      "stateMutability": "nonpayable",
      "type": "function"
    },
    {
      "inputs": [
        {
          "internalType": "address",
          "name": "operator",
          "type": "address"
        },
        {
          "internalType": "bool",
          "name": "approved",
          "type": "bool"
        }
      ],
      "name": "setApprovalForAll",
      "outputs": [],
      "stateMutability": "nonpayable",
      "type": "function"
    },
    {
      "inputs": [
        {
          "internalType": "bytes4",
          "name": "interfaceId",
          "type": "bytes4"
        }
      ],
      "name": "supportsInterface",
      "outputs": [
        {
          "internalType": "bool",
          "name": "",
          "type": "bool"
        }
      ],
      "stateMutability": "view",
      "type": "function"
    },
    {
      "inputs": [],
      "name": "symbol",
      "outputs": [
        {
          "internalType": "string",
          "name": "",
          "type": "string"
        }
      ],
      "stateMutability": "view",
      "type": "function"
    },
    {
      "inputs": [
        {
          "internalType": "uint256",
          "name": "tokenId",
          "type": "uint256"
        }
      ],
      "name": "tokenURI",
      "outputs": [
        {
          "internalType": "string",
          "name": "",
          "type": "string"
        }
      ],
      "stateMutability": "view",
      "type": "function"
    },
    {
      "inputs": [],
      "name": "totalMinted",
      "outputs": [
        {
          "internalType": "uint256",
          "name": "",
          "type": "uint256"
        }
      ],
      "stateMutability": "view",
      "type": "function"
    },
    {
      "inputs": [
        {
          "internalType": "address",
          "name": "from",
          "type": "address"
        },
        {
          "internalType": "address",
          "name": "to",
          "type": "address"
        },
        {
          "internalType": "uint256",
          "name": "tokenId",
          "type": "uint256"
        }
      ],
      "name": "transferFrom",
      "outputs": [],
      "stateMutability": "nonpayable",
      "type": "function"
    },
    {
      "inputs": [
        {
          "internalType": "address",
          "name": "newOwner",
          "type": "address"
        }
      ],
      "name": "transferOwnership",
      "outputs": [],
      "stateMutability": "nonpayable",
      "type": "function"
    },
    {
      "inputs": [
        {
          "internalType": "uint256",
          "name": "tokenId",
          "type": "uint256"
        },
        {
          "internalType": "string",
          "name": "newName",
          "type": "string"
        },
        {
          "internalType": "string",
          "name": "newDescription",
          "type": "string"
        },
        {
          "internalType": "uint256",
          "name": "newPrice",
          "type": "uint256"
        },
        {
          "internalType": "bool",
          "name": "forSale",
          "type": "bool"
        }
      ],
      "name": "updateListing",
      "outputs": [],
      "stateMutability": "nonpayable",
      "type": "function"
    }
  ],
  "bytecode": "0x608060405234801561001057600080fd5b506040518060400160405280600981526020017f5265616c417373657400000000000000000000000000000000000000000000008152506040518060400160405280600581526020017f52414e4654000000000000000000000000000000000000000000000000000000815250816000908161008c91906103de565b50806001908161009c91906103de565b5050506100bb6100b06100c060201b60201c565b6100c860201b60201c565b6104b0565b600033905090565b6000600660009054906101000a900473ffffffffffffffffffffffffffffffffffffffff16905081600660006101000a81548173ffffffffffffffffffffffffffffffffffffffff021916908373ffffffffffffffffffffffffffffffffffffffff1602179055508173ffffffffffffffffffffffffffffffffffffffff168173ffffffffffffffffffffffffffffffffffffffff167f8be0079c531659141344cd1fd0a4f28419497f9722a3daafe3b4186f6b6457e060405160405180910390a35050565b600081519050919050565b7f4e487b7100000000000000000000000000000000000000000000000000000000600052604160045260246000fd5b7f4e487b7100000000000000000000000000000000000000000000000000000000600052602260045260246000fd5b6000600282049050600182168061020f57607f821691505b602082108103610222576102216101c8565b5b50919050565b60008190508160005260206000209050919050565b60006020601f8301049050919050565b600082821b905092915050565b60006008830261028a7fffffffffffffffffffffffffffffffffffffffffffffffffffffffffffffffff8261024d565b610294868361024d565b95508019841693508086168417925050509392505050565b6000819050919050565b6000819050919050565b60006102db6102d66102d1846102ac565b6102b6565b6102ac565b9050919050565b6000819050919050565b6102f5836102c0565b610309610301826102e2565b84845461025a565b825550505050565b600090565b61031e610311565b6103298184846102ec565b505050565b5b8181101561034d57610342600082610316565b60018101905061032f565b5050565b601f8211156103925761036381610228565b61036c8461023d565b8101602085101561037b578190505b61038f6103878561023d565b83018261032e565b50505b505050565b600082821c905092915050565b60006103b560001984600802610397565b1980831691505092915050565b60006103ce83836103a4565b9150826002028217905092915050565b6103e78261018e565b67ffffffffffffffff811115610400576103ff610199565b5b61040a82546101f7565b610415828285610351565b600060209050601f8311600181146104485760008415610436578287015190505b61044085826103c2565b8655506104a8565b601f19841661045686610228565b60005b8281101561047e57848901518255600182019150602085019450602081019050610459565b8683101561049b5784890151610497601f8916826103a4565b8355505b6001600288020188555050505b505050505050565b613aa2806104bf6000396000f3fe6080604052600436106101355760003560e01c80638da5cb5b116100ab578063b88d4fde1161006f578063b88d4fde14610403578063c87b56dd1461042c578063cf35bdd014610469578063e985e9c5146104aa578063eac8f5b8146104e7578063f2fde38b1461052857610135565b80638da5cb5b1461033057806395d89b411461035b5780639a681aeb14610386578063a22cb465146103af578063a2309ff8146103d857610135565b8063110d35b8116100fd578063110d35b81461023157806323b872dd1461024d57806342842e0e146102765780636352211e1461029f57806370a08231146102dc578063715018a61461031957610135565b806301ffc9a71461013a57806306fdde0314610177578063081812fc146101a2578063095ea7b3146101df57806310bb375714610208575b600080fd5b34801561014657600080fd5b50610161600480360381019061015c91906125b0565b610551565b60405161016e91906125f8565b60405180910390f35b34801561018357600080fd5b5061018c610633565b60405161019991906126a3565b60405180910390f35b3480156101ae57600080fd5b506101c960048036038101906101c491906126fb565b6106c5565b6040516101d69190612769565b60405180910390f35b3480156101eb57600080fd5b50610206600480360381019061020191906127b0565b61070b565b005b34801561021457600080fd5b5061022f600480360381019061022a9190612951565b610822565b005b61024b600480360381019061024691906126fb565b610985565b005b34801561025957600080fd5b50610274600480360381019061026f9190612a04565b610cb3565b005b34801561028257600080fd5b5061029d60048036038101906102989190612a04565b610d13565b005b3480156102ab57600080fd5b506102c660048036038101906102c191906126fb565b610d33565b6040516102d39190612769565b60405180910390f35b3480156102e857600080fd5b5061030360048036038101906102fe9190612a57565b610db9565b6040516103109190612a93565b60405180910390f35b34801561032557600080fd5b5061032e610e70565b005b34801561033c57600080fd5b50610345610e84565b6040516103529190612769565b60405180910390f35b34801561036757600080fd5b50610370610eae565b60405161037d91906126a3565b60405180910390f35b34801561039257600080fd5b506103ad60048036038101906103a89190612aae565b610f40565b005b3480156103bb57600080fd5b506103d660048036038101906103d19190612b39565b61109e565b005b3480156103e457600080fd5b506103ed6110b4565b6040516103fa9190612a93565b60405180910390f35b34801561040f57600080fd5b5061042a60048036038101906104259190612c1a565b6110c5565b005b34801561043857600080fd5b50610453600480360381019061044e91906126fb565b611127565b60405161046091906126a3565b60405180910390f35b34801561047557600080fd5b50610490600480360381019061048b91906126fb565b61118f565b6040516104a1959493929190612cbe565b60405180910390f35b3480156104b657600080fd5b506104d160048036038101906104cc9190612d1f565b611302565b6040516104de91906125f8565b60405180910390f35b3480156104f357600080fd5b5061050e600480360381019061050991906126fb565b611396565b60405161051f959493929190612d5f565b60405180910390f35b34801561053457600080fd5b5061054f600480360381019061054a9190612a57565b61158b565b005b60007f80ac58cd000000000000000000000000000000000000000000000000000000007bffffffffffffffffffffffffffffffffffffffffffffffffffffffff1916827bffffffffffffffffffffffffffffffffffffffffffffffffffffffff1916148061061c57507f5b5e139f000000000000000000000000000000000000000000000000000000007bffffffffffffffffffffffffffffffffffffffffffffffffffffffff1916827bffffffffffffffffffffffffffffffffffffffffffffffffffffffff1916145b8061062c575061062b8261160e565b5b9050919050565b60606000805461064290612def565b80601f016020809104026020016040519081016040528092919081815260200182805461066e90612def565b80156106bb5780601f10610690576101008083540402835291602001916106bb565b820191906000526020600020905b81548152906001019060200180831161069e57829003601f168201915b5050505050905090565b60006106d082611678565b6004600083815260200190815260200160002060009054906101000a900473ffffffffffffffffffffffffffffffffffffffff169050919050565b600061071682610d33565b90508073ffffffffffffffffffffffffffffffffffffffff168373ffffffffffffffffffffffffffffffffffffffff1603610786576040517f08c379a000000000000000000000000000000000000000000000000000000000815260040161077d90612e92565b60405180910390fd5b8073ffffffffffffffffffffffffffffffffffffffff166107a56116c3565b73ffffffffffffffffffffffffffffffffffffffff1614806107d457506107d3816107ce6116c3565b611302565b5b610813576040517f08c379a000000000000000000000000000000000000000000000000000000000815260040161080a90612f24565b60405180910390fd5b61081d83836116cb565b505050565b3373ffffffffffffffffffffffffffffffffffffffff1661084286610d33565b73ffffffffffffffffffffffffffffffffffffffff1614610898576040517f08c379a000000000000000000000000000000000000000000000000000000000815260040161088f90612f90565b60405180910390fd5b816008600087815260200190815260200160002060020181905550836008600087815260200190815260200160002060000190816108d6919061315c565b50826008600087815260200190815260200160002060010190816108fa919061315c565b50806008600087815260200190815260200160002060030160146101000a81548160ff021916908315150217905550336008600087815260200190815260200160002060030160006101000a81548173ffffffffffffffffffffffffffffffffffffffff021916908373ffffffffffffffffffffffffffffffffffffffff1602179055505050505050565b6000600860008381526020019081526020016000206040518060a00160405290816000820180546109b590612def565b80601f01602080910402602001604051908101604052809291908181526020018280546109e190612def565b8015610a2e5780601f10610a0357610100808354040283529160200191610a2e565b820191906000526020600020905b815481529060010190602001808311610a1157829003601f168201915b50505050508152602001600182018054610a4790612def565b80601f0160208091040260200160405190810160405280929190818152602001828054610a7390612def565b8015610ac05780601f10610a9557610100808354040283529160200191610ac0565b820191906000526020600020905b815481529060010190602001808311610aa357829003601f168201915b50505050508152602001600282015481526020016003820160009054906101000a900473ffffffffffffffffffffffffffffffffffffffff1673ffffffffffffffffffffffffffffffffffffffff1673ffffffffffffffffffffffffffffffffffffffff1681526020016003820160149054906101000a900460ff16151515158152505090508060800151610b8a576040517f08c379a0000000000000000000000000000000000000000000000000000000008152600401610b819061327a565b60405180910390fd5b8060400151341015610bd1576040517f08c379a0000000000000000000000000000000000000000000000000000000008152600401610bc8906132e6565b60405180910390fd5b806060015173ffffffffffffffffffffffffffffffffffffffff166108fc349081150290604051600060405180830381858888f19350505050158015610c1b573d6000803e3d6000fd5b50610c2b81606001513384611784565b60006008600084815260200190815260200160002060030160146101000a81548160ff021916908315150217905550336008600084815260200190815260200160002060030160006101000a81548173ffffffffffffffffffffffffffffffffffffffff021916908373ffffffffffffffffffffffffffffffffffffffff1602179055505050565b610cc4610cbe6116c3565b82611a7d565b610d03576040517f08c379a0000000000000000000000000000000000000000000000000000000008152600401610cfa90613378565b60405180910390fd5b610d0e838383611784565b505050565b610d2e838383604051806020016040528060008152506110c5565b505050565b600080610d3f83611b12565b9050600073ffffffffffffffffffffffffffffffffffffffff168173ffffffffffffffffffffffffffffffffffffffff1603610db0576040517f08c379a0000000000000000000000000000000000000000000000000000000008152600401610da7906133e4565b60405180910390fd5b80915050919050565b60008073ffffffffffffffffffffffffffffffffffffffff168273ffffffffffffffffffffffffffffffffffffffff1603610e29576040517f08c379a0000000000000000000000000000000000000000000000000000000008152600401610e2090613476565b60405180910390fd5b600360008373ffffffffffffffffffffffffffffffffffffffff1673ffffffffffffffffffffffffffffffffffffffff168152602001908152602001600020549050919050565b610e78611b4f565b610e826000611bcd565b565b6000600660009054906101000a900473ffffffffffffffffffffffffffffffffffffffff16905090565b606060018054610ebd90612def565b80601f0160208091040260200160405190810160405280929190818152602001828054610ee990612def565b8015610f365780601f10610f0b57610100808354040283529160200191610f36565b820191906000526020600020905b815481529060010190602001808311610f1957829003601f168201915b5050505050905090565b60008111610f83576040517f08c379a0000000000000000000000000000000000000000000000000000000008152600401610f7a906134e2565b60405180910390fd5b610f8d6007611c93565b6000610f996007611ca9565b9050610fa53382611cb7565b6040518060a001604052808581526020018481526020018381526020013373ffffffffffffffffffffffffffffffffffffffff1681526020016001151581525060086000838152602001908152602001600020600082015181600001908161100d919061315c565b506020820151816001019081611023919061315c565b506040820151816002015560608201518160030160006101000a81548173ffffffffffffffffffffffffffffffffffffffff021916908373ffffffffffffffffffffffffffffffffffffffff16021790555060808201518160030160146101000a81548160ff02191690831515021790555090505050505050565b6110b06110a96116c3565b8383611cd5565b5050565b60006110c06007611ca9565b905090565b6110d66110d06116c3565b83611a7d565b611115576040517f08c379a000000000000000000000000000000000000000000000000000000000815260040161110c90613378565b60405180910390fd5b61112184848484611e41565b50505050565b606061113282611678565b600061113c611e9d565b9050600081511161115c5760405180602001604052806000815250611187565b8061116684611eb4565b60405160200161117792919061353e565b6040516020818303038152906040525b915050919050565b60086020528060005260406000206000915090508060000180546111b290612def565b80601f01602080910402602001604051908101604052809291908181526020018280546111de90612def565b801561122b5780601f106112005761010080835404028352916020019161122b565b820191906000526020600020905b81548152906001019060200180831161120e57829003601f168201915b50505050509080600101805461124090612def565b80601f016020809104026020016040519081016040528092919081815260200182805461126c90612def565b80156112b95780601f1061128e576101008083540402835291602001916112b9565b820191906000526020600020905b81548152906001019060200180831161129c57829003601f168201915b5050505050908060020154908060030160009054906101000a900473ffffffffffffffffffffffffffffffffffffffff16908060030160149054906101000a900460ff16905085565b6000600560008473ffffffffffffffffffffffffffffffffffffffff1673ffffffffffffffffffffffffffffffffffffffff16815260200190815260200160002060008373ffffffffffffffffffffffffffffffffffffffff1673ffffffffffffffffffffffffffffffffffffffff16815260200190815260200160002060009054906101000a900460ff16905092915050565b606080600080600080600860008881526020019081526020016000206040518060a00160405290816000820180546113cd90612def565b80601f01602080910402602001604051908101604052809291908181526020018280546113f990612def565b80156114465780601f1061141b57610100808354040283529160200191611446565b820191906000526020600020905b81548152906001019060200180831161142957829003601f168201915b5050505050815260200160018201805461145f90612def565b80601f016020809104026020016040519081016040528092919081815260200182805461148b90612def565b80156114d85780601f106114ad576101008083540402835291602001916114d8565b820191906000526020600020905b8154815290600101906020018083116114bb57829003601f168201915b50505050508152602001600282015481526020016003820160009054906101000a900473ffffffffffffffffffffffffffffffffffffffff1673ffffffffffffffffffffffffffffffffffffffff1673ffffffffffffffffffffffffffffffffffffffff1681526020016003820160149054906101000a900460ff161515151581525050905080600001518160200151826040015183606001518460800151955095509550955095505091939590929450565b611593611b4f565b600073ffffffffffffffffffffffffffffffffffffffff168173ffffffffffffffffffffffffffffffffffffffff1603611602576040517f08c379a00000000000000000000000000000000000000000000000000000000081526004016115f9906135d4565b60405180910390fd5b61160b81611bcd565b50565b60007f01ffc9a7000000000000000000000000000000000000000000000000000000007bffffffffffffffffffffffffffffffffffffffffffffffffffffffff1916827bffffffffffffffffffffffffffffffffffffffffffffffffffffffff1916149050919050565b61168181611f82565b6116c0576040517f08c379a00000000000000000000000000000000000000000000000000000000081526004016116b7906133e4565b60405180910390fd5b50565b600033905090565b816004600083815260200190815260200160002060006101000a81548173ffffffffffffffffffffffffffffffffffffffff021916908373ffffffffffffffffffffffffffffffffffffffff160217905550808273ffffffffffffffffffffffffffffffffffffffff1661173e83610d33565b73ffffffffffffffffffffffffffffffffffffffff167f8c5be1e5ebec7d5bd14f71427d1e84f3dd0314c0f7b2291e5b200ac8c7c3b92560405160405180910390a45050565b8273ffffffffffffffffffffffffffffffffffffffff166117a482610d33565b73ffffffffffffffffffffffffffffffffffffffff16146117fa576040517f08c379a00000000000000000000000000000000000000000000000000000000081526004016117f190613666565b60405180910390fd5b600073ffffffffffffffffffffffffffffffffffffffff168273ffffffffffffffffffffffffffffffffffffffff1603611869576040517f08c379a0000000000000000000000000000000000000000000000000000000008152600401611860906136f8565b60405180910390fd5b6118768383836001611fc3565b8273ffffffffffffffffffffffffffffffffffffffff1661189682610d33565b73ffffffffffffffffffffffffffffffffffffffff16146118ec576040517f08c379a00000000000000000000000000000000000000000000000000000000081526004016118e390613666565b60405180910390fd5b6004600082815260200190815260200160002060006101000a81549073ffffffffffffffffffffffffffffffffffffffff02191690556001600360008573ffffffffffffffffffffffffffffffffffffffff1673ffffffffffffffffffffffffffffffffffffffff168152602001908152602001600020600082825403925050819055506001600360008473ffffffffffffffffffffffffffffffffffffffff1673ffffffffffffffffffffffffffffffffffffffff16815260200190815260200160002060008282540192505081905550816002600083815260200190815260200160002060006101000a81548173ffffffffffffffffffffffffffffffffffffffff021916908373ffffffffffffffffffffffffffffffffffffffff160217905550808273ffffffffffffffffffffffffffffffffffffffff168473ffffffffffffffffffffffffffffffffffffffff167fddf252ad1be2c89b69c2b068fc378daa952ba7f163c4a11628f55a4df523b3ef60405160405180910390a4611a788383836001611fc9565b505050565b600080611a8983610d33565b90508073ffffffffffffffffffffffffffffffffffffffff168473ffffffffffffffffffffffffffffffffffffffff161480611acb5750611aca8185611302565b5b80611b0957508373ffffffffffffffffffffffffffffffffffffffff16611af1846106c5565b73ffffffffffffffffffffffffffffffffffffffff16145b91505092915050565b60006002600083815260200190815260200160002060009054906101000a900473ffffffffffffffffffffffffffffffffffffffff169050919050565b611b576116c3565b73ffffffffffffffffffffffffffffffffffffffff16611b75610e84565b73ffffffffffffffffffffffffffffffffffffffff1614611bcb576040517f08c379a0000000000000000000000000000000000000000000000000000000008152600401611bc290613764565b60405180910390fd5b565b6000600660009054906101000a900473ffffffffffffffffffffffffffffffffffffffff16905081600660006101000a81548173ffffffffffffffffffffffffffffffffffffffff021916908373ffffffffffffffffffffffffffffffffffffffff1602179055508173ffffffffffffffffffffffffffffffffffffffff168173ffffffffffffffffffffffffffffffffffffffff167f8be0079c531659141344cd1fd0a4f28419497f9722a3daafe3b4186f6b6457e060405160405180910390a35050565b6001816000016000828254019250508190555050565b600081600001549050919050565b611cd1828260405180602001604052806000815250611fcf565b5050565b8173ffffffffffffffffffffffffffffffffffffffff168373ffffffffffffffffffffffffffffffffffffffff1603611d43576040517f08c379a0000000000000000000000000000000000000000000000000000000008152600401611d3a906137d0565b60405180910390fd5b80600560008573ffffffffffffffffffffffffffffffffffffffff1673ffffffffffffffffffffffffffffffffffffffff16815260200190815260200160002060008473ffffffffffffffffffffffffffffffffffffffff1673ffffffffffffffffffffffffffffffffffffffff16815260200190815260200160002060006101000a81548160ff0219169083151502179055508173ffffffffffffffffffffffffffffffffffffffff168373ffffffffffffffffffffffffffffffffffffffff167f17307eab39ab6107e8899845ad3d59bd9653f200f220920489ca2b5937696c3183604051611e3491906125f8565b60405180910390a3505050565b611e4c848484611784565b611e588484848461202a565b611e97576040517f08c379a0000000000000000000000000000000000000000000000000000000008152600401611e8e90613862565b60405180910390fd5b50505050565b606060405180602001604052806000815250905090565b606060006001611ec3846121b1565b01905060008167ffffffffffffffff811115611ee257611ee16127fa565b5b6040519080825280601f01601f191660200182016040528015611f145781602001600182028036833780820191505090505b509050600082602001820190505b600115611f77578080600190039150507f3031323334353637383961626364656600000000000000000000000000000000600a86061a8153600a8581611f6b57611f6a613882565b5b04945060008503611f22575b819350505050919050565b60008073ffffffffffffffffffffffffffffffffffffffff16611fa483611b12565b73ffffffffffffffffffffffffffffffffffffffff1614159050919050565b50505050565b50505050565b611fd98383612304565b611fe6600084848461202a565b612025576040517f08c379a000000000000000000000000000000000000000000000000000000000815260040161201c90613862565b60405180910390fd5b505050565b600061204b8473ffffffffffffffffffffffffffffffffffffffff16612521565b156121a4578373ffffffffffffffffffffffffffffffffffffffff1663150b7a026120746116c3565b8786866040518563ffffffff1660e01b81526004016120969493929190613906565b6020604051808303816000875af19250505080156120d257506040513d601f19601f820116820180604052508101906120cf9190613967565b60015b612154573d8060008114612102576040519150601f19603f3d011682016040523d82523d6000602084013e612107565b606091505b50600081510361214c576040517f08c379a000000000000000000000000000000000000000000000000000000000815260040161214390613862565b60405180910390fd5b805181602001fd5b63150b7a0260e01b7bffffffffffffffffffffffffffffffffffffffffffffffffffffffff1916817bffffffffffffffffffffffffffffffffffffffffffffffffffffffff1916149150506121a9565b600190505b949350505050565b600080600090507a184f03e93ff9f4daa797ed6e38ed64bf6a1f010000000000000000831061220f577a184f03e93ff9f4daa797ed6e38ed64bf6a1f010000000000000000838161220557612204613882565b5b0492506040810190505b6d04ee2d6d415b85acef8100000000831061224c576d04ee2d6d415b85acef8100000000838161224257612241613882565b5b0492506020810190505b662386f26fc10000831061227b57662386f26fc10000838161227157612270613882565b5b0492506010810190505b6305f5e10083106122a4576305f5e100838161229a57612299613882565b5b0492506008810190505b61271083106122c95761271083816122bf576122be613882565b5b0492506004810190505b606483106122ec57606483816122e2576122e1613882565b5b0492506002810190505b600a83106122fb576001810190505b80915050919050565b600073ffffffffffffffffffffffffffffffffffffffff168273ffffffffffffffffffffffffffffffffffffffff1603612373576040517f08c379a000000000000000000000000000000000000000000000000000000000815260040161236a906139e0565b60405180910390fd5b61237c81611f82565b156123bc576040517f08c379a00000000000000000000000000000000000000000000000000000000081526004016123b390613a4c565b60405180910390fd5b6123ca600083836001611fc3565b6123d381611f82565b15612413576040517f08c379a000000000000000000000000000000000000000000000000000000000815260040161240a90613a4c565b60405180910390fd5b6001600360008473ffffffffffffffffffffffffffffffffffffffff1673ffffffffffffffffffffffffffffffffffffffff16815260200190815260200160002060008282540192505081905550816002600083815260200190815260200160002060006101000a81548173ffffffffffffffffffffffffffffffffffffffff021916908373ffffffffffffffffffffffffffffffffffffffff160217905550808273ffffffffffffffffffffffffffffffffffffffff16600073ffffffffffffffffffffffffffffffffffffffff167fddf252ad1be2c89b69c2b068fc378daa952ba7f163c4a11628f55a4df523b3ef60405160405180910390a461251d600083836001611fc9565b5050565b6000808273ffffffffffffffffffffffffffffffffffffffff163b119050919050565b6000604051905090565b600080fd5b600080fd5b60007fffffffff0000000000000000000000000000000000000000000000000000000082169050919050565b61258d81612558565b811461259857600080fd5b50565b6000813590506125aa81612584565b92915050565b6000602082840312156125c6576125c561254e565b5b60006125d48482850161259b565b91505092915050565b60008115159050919050565b6125f2816125dd565b82525050565b600060208201905061260d60008301846125e9565b92915050565b600081519050919050565b600082825260208201905092915050565b60005b8381101561264d578082015181840152602081019050612632565b60008484015250505050565b6000601f19601f8301169050919050565b600061267582612613565b61267f818561261e565b935061268f81856020860161262f565b61269881612659565b840191505092915050565b600060208201905081810360008301526126bd818461266a565b905092915050565b6000819050919050565b6126d8816126c5565b81146126e357600080fd5b50565b6000813590506126f5816126cf565b92915050565b6000602082840312156127115761271061254e565b5b600061271f848285016126e6565b91505092915050565b600073ffffffffffffffffffffffffffffffffffffffff82169050919050565b600061275382612728565b9050919050565b61276381612748565b82525050565b600060208201905061277e600083018461275a565b92915050565b61278d81612748565b811461279857600080fd5b50565b6000813590506127aa81612784565b92915050565b600080604083850312156127c7576127c661254e565b5b60006127d58582860161279b565b92505060206127e6858286016126e6565b9150509250929050565b600080fd5b600080fd5b7f4e487b7100000000000000000000000000000000000000000000000000000000600052604160045260246000fd5b61283282612659565b810181811067ffffffffffffffff82111715612851576128506127fa565b5b80604052505050565b6000612864612544565b90506128708282612829565b919050565b600067ffffffffffffffff8211156128905761288f6127fa565b5b61289982612659565b9050602081019050919050565b82818337600083830152505050565b60006128c86128c384612875565b61285a565b9050828152602081018484840111156128e4576128e36127f5565b5b6128ef8482856128a6565b509392505050565b600082601f83011261290c5761290b6127f0565b5b813561291c8482602086016128b5565b91505092915050565b61292e816125dd565b811461293957600080fd5b50565b60008135905061294b81612925565b92915050565b600080600080600060a0868803121561296d5761296c61254e565b5b600061297b888289016126e6565b955050602086013567ffffffffffffffff81111561299c5761299b612553565b5b6129a8888289016128f7565b945050604086013567ffffffffffffffff8111156129c9576129c8612553565b5b6129d5888289016128f7565b93505060606129e6888289016126e6565b92505060806129f78882890161293c565b9150509295509295909350565b600080600060608486031215612a1d57612a1c61254e565b5b6000612a2b8682870161279b565b9350506020612a3c8682870161279b565b9250506040612a4d868287016126e6565b9150509250925092565b600060208284031215612a6d57612a6c61254e565b5b6000612a7b8482850161279b565b91505092915050565b612a8d816126c5565b82525050565b6000602082019050612aa86000830184612a84565b92915050565b600080600060608486031215612ac757612ac661254e565b5b600084013567ffffffffffffffff811115612ae557612ae4612553565b5b612af1868287016128f7565b935050602084013567ffffffffffffffff811115612b1257612b11612553565b5b612b1e868287016128f7565b9250506040612b2f868287016126e6565b9150509250925092565b60008060408385031215612b5057612b4f61254e565b5b6000612b5e8582860161279b565b9250506020612b6f8582860161293c565b9150509250929050565b600067ffffffffffffffff821115612b9457612b936127fa565b5b612b9d82612659565b9050602081019050919050565b6000612bbd612bb884612b79565b61285a565b905082815260208101848484011115612bd957612bd86127f5565b5b612be48482856128a6565b509392505050565b600082601f830112612c0157612c006127f0565b5b8135612c11848260208601612baa565b91505092915050565b60008060008060808587031215612c3457612c3361254e565b5b6000612c428782880161279b565b9450506020612c538782880161279b565b9350506040612c64878288016126e6565b925050606085013567ffffffffffffffff811115612c8557612c84612553565b5b612c9187828801612bec565b91505092959194509250565b6000612ca882612728565b9050919050565b612cb881612c9d565b82525050565b600060a0820190508181036000830152612cd8818861266a565b90508181036020830152612cec818761266a565b9050612cfb6040830186612a84565b612d086060830185612caf565b612d1560808301846125e9565b9695505050505050565b60008060408385031215612d3657612d3561254e565b5b6000612d448582860161279b565b9250506020612d558582860161279b565b9150509250929050565b600060a0820190508181036000830152612d79818861266a565b90508181036020830152612d8d818761266a565b9050612d9c6040830186612a84565b612da9606083018561275a565b612db660808301846125e9565b9695505050505050565b7f4e487b7100000000000000000000000000000000000000000000000000000000600052602260045260246000fd5b60006002820490506001821680612e0757607f821691505b602082108103612e1a57612e19612dc0565b5b50919050565b7f4552433732313a20617070726f76616c20746f2063757272656e74206f776e6560008201527f7200000000000000000000000000000000000000000000000000000000000000602082015250565b6000612e7c60218361261e565b9150612e8782612e20565b604082019050919050565b60006020820190508181036000830152612eab81612e6f565b9050919050565b7f4552433732313a20617070726f76652063616c6c6572206973206e6f7420746f60008201527f6b656e206f776e6572206f7220617070726f76656420666f7220616c6c000000602082015250565b6000612f0e603d8361261e565b9150612f1982612eb2565b604082019050919050565b60006020820190508181036000830152612f3d81612f01565b9050919050565b7f4e6f7420746865206f776e657200000000000000000000000000000000000000600082015250565b6000612f7a600d8361261e565b9150612f8582612f44565b602082019050919050565b60006020820190508181036000830152612fa981612f6d565b9050919050565b60008190508160005260206000209050919050565b60006020601f8301049050919050565b600082821b905092915050565b6000600883026130127fffffffffffffffffffffffffffffffffffffffffffffffffffffffffffffffff82612fd5565b61301c8683612fd5565b95508019841693508086168417925050509392505050565b6000819050919050565b600061305961305461304f846126c5565b613034565b6126c5565b9050919050565b6000819050919050565b6130738361303e565b61308761307f82613060565b848454612fe2565b825550505050565b600090565b61309c61308f565b6130a781848461306a565b505050565b5b818110156130cb576130c0600082613094565b6001810190506130ad565b5050565b601f821115613110576130e181612fb0565b6130ea84612fc5565b810160208510156130f9578190505b61310d61310585612fc5565b8301826130ac565b50505b505050565b600082821c905092915050565b600061313360001984600802613115565b1980831691505092915050565b600061314c8383613122565b9150826002028217905092915050565b61316582612613565b67ffffffffffffffff81111561317e5761317d6127fa565b5b6131888254612def565b6131938282856130cf565b600060209050601f8311600181146131c657600084156131b4578287015190505b6131be8582613140565b865550613226565b601f1984166131d486612fb0565b60005b828110156131fc578489015182556001820191506020850194506020810190506131d7565b868310156132195784890151613215601f891682613122565b8355505b6001600288020188555050505b505050505050565b7f4173736574206e6f7420666f722073616c650000000000000000000000000000600082015250565b600061326460128361261e565b915061326f8261322e565b602082019050919050565b6000602082019050818103600083015261329381613257565b9050919050565b7f4e6f7420656e6f75676820455448000000000000000000000000000000000000600082015250565b60006132d0600e8361261e565b91506132db8261329a565b602082019050919050565b600060208201905081810360008301526132ff816132c3565b9050919050565b7f4552433732313a2063616c6c6572206973206e6f7420746f6b656e206f776e6560008201527f72206f7220617070726f76656400000000000000000000000000000000000000602082015250565b6000613362602d8361261e565b915061336d82613306565b604082019050919050565b6000602082019050818103600083015261339181613355565b9050919050565b7f4552433732313a20696e76616c696420746f6b656e2049440000000000000000600082015250565b60006133ce60188361261e565b91506133d982613398565b602082019050919050565b600060208201905081810360008301526133fd816133c1565b9050919050565b7f4552433732313a2061646472657373207a65726f206973206e6f74206120766160008201527f6c6964206f776e65720000000000000000000000000000000000000000000000602082015250565b600061346060298361261e565b915061346b82613404565b604082019050919050565b6000602082019050818103600083015261348f81613453565b9050919050565b7f5072696365206d757374206265203e2030000000000000000000000000000000600082015250565b60006134cc60118361261e565b91506134d782613496565b602082019050919050565b600060208201905081810360008301526134fb816134bf565b9050919050565b600081905092915050565b600061351882612613565b6135228185613502565b935061353281856020860161262f565b80840191505092915050565b600061354a828561350d565b9150613556828461350d565b91508190509392505050565b7f4f776e61626c653a206e6577206f776e657220697320746865207a65726f206160008201527f6464726573730000000000000000000000000000000000000000000000000000602082015250565b60006135be60268361261e565b91506135c982613562565b604082019050919050565b600060208201905081810360008301526135ed816135b1565b9050919050565b7f4552433732313a207472616e736665722066726f6d20696e636f72726563742060008201527f6f776e6572000000000000000000000000000000000000000000000000000000602082015250565b600061365060258361261e565b915061365b826135f4565b604082019050919050565b6000602082019050818103600083015261367f81613643565b9050919050565b7f4552433732313a207472616e7366657220746f20746865207a65726f2061646460008201527f7265737300000000000000000000000000000000000000000000000000000000602082015250565b60006136e260248361261e565b91506136ed82613686565b604082019050919050565b60006020820190508181036000830152613711816136d5565b9050919050565b7f4f776e61626c653a2063616c6c6572206973206e6f7420746865206f776e6572600082015250565b600061374e60208361261e565b915061375982613718565b602082019050919050565b6000602082019050818103600083015261377d81613741565b9050919050565b7f4552433732313a20617070726f766520746f2063616c6c657200000000000000600082015250565b60006137ba60198361261e565b91506137c582613784565b602082019050919050565b600060208201905081810360008301526137e9816137ad565b9050919050565b7f4552433732313a207472616e7366657220746f206e6f6e20455243373231526560008201527f63656976657220696d706c656d656e7465720000000000000000000000000000602082015250565b600061384c60328361261e565b9150613857826137f0565b604082019050919050565b6000602082019050818103600083015261387b8161383f565b9050919050565b7f4e487b7100000000000000000000000000000000000000000000000000000000600052601260045260246000fd5b600081519050919050565b600082825260208201905092915050565b60006138d8826138b1565b6138e281856138bc565b93506138f281856020860161262f565b6138fb81612659565b840191505092915050565b600060808201905061391b600083018761275a565b613928602083018661275a565b6139356040830185612a84565b818103606083015261394781846138cd565b905095945050505050565b60008151905061396181612584565b92915050565b60006020828403121561397d5761397c61254e565b5b600061398b84828501613952565b91505092915050565b7f4552433732313a206d696e7420746f20746865207a65726f2061646472657373600082015250565b60006139ca60208361261e565b91506139d582613994565b602082019050919050565b600060208201905081810360008301526139f9816139bd565b9050919050565b7f4552433732313a20746f6b656e20616c7265616479206d696e74656400000000600082015250565b6000613a36601c8361261e565b9150613a4182613a00565b602082019050919050565b60006020820190508181036000830152613a6581613a29565b905091905056fea264697066735822122003949af5fe9ec9ba34f771818d1cd86dd28df9cb1a3c9b640324f39b293177ed64736f6c634300081c0033",
  "linkReferences": {},
  "deployedLinkReferences": {}
}