{
  "_format": "hh-sol-artifact-1",
  "contractName": "RealAssetNFT",
  "sourceName": "contracts/RealAssetNFT.sol",
  "abi": [
    {
      "inputs": [],
      "stateMutability": "nonpayable",
      "type": "constructor"
    },
    {
      "anonymous": false,
      "inputs": [
        {
          "indexed": true,
          "internalType": "address",
          "name": "owner",
          "type": "address"
        },
        {
          "indexed": true,
          "internalType": "address",
          "name": "approved",
          "type": "address"
        },
        {
          "indexed": true,
          "internalType": "uint256",
          "name": "tokenId",
          "type": "uint256"
        }
      ],
      "name": "Approval",
      "type": "event"
    },
    {
      "anonymous": false,
      "inputs": [
        {
          "indexed": true,
          "internalType": "address",
          "name": "owner",
          "type": "address"
        },
        {
          "indexed": true,
          "internalType": "address",
          "name": "operator",
          "type": "address"
        },
        {
          "indexed": false,
          "internalType": "bool",
          "name": "approved",
          "type": "bool"
        }
      ],
      "name": "ApprovalForAll",
      "type": "event"
    },
    {
      "anonymous": false,
      "inputs": [
        {
          "indexed": true,
          "internalType": "address",
          "name": "previousOwner",
          "type": "address"
        },
        {
          "indexed": true,
          "internalType": "address",
          "name": "newOwner",
          "type": "address"
        }
      ],
      "name": "OwnershipTransferred",
      "type": "event"
    },
    {
      "anonymous": false,
      "inputs": [
        {
          "indexed": true,
          "internalType": "address",
          "name": "from",
          "type": "address"
        },
        {
          "indexed": true,
          "internalType": "address",
          "name": "to",
          "type": "address"
        },
        {
          "indexed": true,
          "internalType": "uint256",
          "name": "tokenId",
          "type": "uint256"
        }
      ],
      "name": "Transfer",
      "type": "event"
    },
    {
      "inputs": [
        {
          "internalType": "address",
          "name": "to",
          "type": "address"
        },
        {
          "internalType": "uint256",
          "name": "tokenId",
          "type": "uint256"
        }
      ],
      "name": "approve",
      "outputs": [],
      "stateMutability": "nonpayable",
      "type": "function"
    },
    {
      "inputs": [
        {
          "internalType": "uint256",
          "name": "",
          "type": "uint256"
        }
      ],
      "name": "assets",
      "outputs": [
        {
          "internalType": "uint256",
          "name": "tokenId",
          "type": "uint256"
        },
        {
          "internalType": "string",
          "name": "name",
          "type": "string"
        },
        {
          "internalType": "string",
          "name": "description",
          "type": "string"
        },
        {
          "internalType": "uint256",
          "name": "price",
          "type": "uint256"
        },
        {
          "internalType": "address payable",
          "name": "seller",
          "type": "address"
        },
        {
          "internalType": "bool",
          "name": "forSale",
          "type": "bool"
        }
      ],
      "stateMutability": "view",
      "type": "function"
    },
    {
      "inputs": [
        {
          "internalType": "address",
          "name": "owner",
          "type": "address"
        }
      ],
      "name": "balanceOf",
      "outputs": [
        {
          "internalType": "uint256",
          "name": "",
          "type": "uint256"
        }
      ],
      "stateMutability": "view",
      "type": "function"
    },
    {
      "inputs": [
        {
          "internalType": "uint256",
          "name": "tokenId",
          "type": "uint256"
        }
      ],
      "name": "burnAsset",
      "outputs": [],
      "stateMutability": "nonpayable",
      "type": "function"
    },
    {
      "inputs": [
        {
          "internalType": "uint256",
          "name": "tokenId",
          "type": "uint256"
        }
      ],
      "name": "buyAsset",
      "outputs": [],
      "stateMutability": "payable",
      "type": "function"
    },
    {
      "inputs": [],
      "name": "getAllAssets",
      "outputs": [
        {
          "components": [
            {
              "internalType": "uint256",
              "name": "tokenId",
              "type": "uint256"
            },
            {
              "internalType": "string",
              "name": "name",
              "type": "string"
            },
            {
              "internalType": "string",
              "name": "description",
              "type": "string"
            },
            {
              "internalType": "uint256",
              "name": "price",
              "type": "uint256"
            },
            {
              "internalType": "address payable",
              "name": "seller",
              "type": "address"
            },
            {
              "internalType": "bool",
              "name": "forSale",
              "type": "bool"
            }
          ],
          "internalType": "struct RealAssetNFT.Asset[]",
          "name": "",
          "type": "tuple[]"
        }
      ],
      "stateMutability": "view",
      "type": "function"
    },
    {
      "inputs": [
        {
          "internalType": "uint256",
          "name": "tokenId",
          "type": "uint256"
        }
      ],
      "name": "getApproved",
      "outputs": [
        {
          "internalType": "address",
          "name": "",
          "type": "address"
        }
      ],
      "stateMutability": "view",
      "type": "function"
    },
    {
      "inputs": [
        {
          "internalType": "uint256",
          "name": "tokenId",
          "type": "uint256"
        }
      ],
      "name": "getAsset",
      "outputs": [
        {
          "internalType": "string",
          "name": "name",
          "type": "string"
        },
        {
          "internalType": "string",
          "name": "description",
          "type": "string"
        },
        {
          "internalType": "uint256",
          "name": "price",
          "type": "uint256"
        },
        {
          "internalType": "address",
          "name": "seller",
          "type": "address"
        },
        {
          "internalType": "bool",
          "name": "forSale",
          "type": "bool"
        }
      ],
      "stateMutability": "view",
      "type": "function"
    },
    {
      "inputs": [
        {
          "internalType": "address",
          "name": "owner",
          "type": "address"
        },
        {
          "internalType": "address",
          "name": "operator",
          "type": "address"
        }
      ],
      "name": "isApprovedForAll",
      "outputs": [
        {
          "internalType": "bool",
          "name": "",
          "type": "bool"
        }
      ],
      "stateMutability": "view",
      "type": "function"
    },
    {
      "inputs": [
        {
          "internalType": "string",
          "name": "name",
          "type": "string"
        },
        {
          "internalType": "string",
          "name": "description",
          "type": "string"
        },
        {
          "internalType": "uint256",
          "name": "price",
          "type": "uint256"
        }
      ],
      "name": "mintAsset",
      "outputs": [],
      "stateMutability": "nonpayable",
      "type": "function"
    },
    {
      "inputs": [],
      "name": "name",
      "outputs": [
        {
          "internalType": "string",
          "name": "",
          "type": "string"
        }
      ],
      "stateMutability": "view",
      "type": "function"
    },
    {
      "inputs": [],
      "name": "owner",
      "outputs": [
        {
          "internalType": "address",
          "name": "",
          "type": "address"
        }
      ],
      "stateMutability": "view",
      "type": "function"
    },
    {
      "inputs": [
        {
          "internalType": "uint256",
          "name": "tokenId",
          "type": "uint256"
        }
      ],
      "name": "ownerOf",
      "outputs": [
        {
          "internalType": "address",
          "name": "",
          "type": "address"
        }
      ],
      "stateMutability": "view",
      "type": "function"
    },
    {
      "inputs": [],
      "name": "renounceOwnership",
      "outputs": [],
      "stateMutability": "nonpayable",
      "type": "function"
    },
    {
      "inputs": [
        {
          "internalType": "address",
          "name": "from",
          "type": "address"
        },
        {
          "internalType": "address",
          "name": "to",
          "type": "address"
        },
        {
          "internalType": "uint256",
          "name": "tokenId",
          "type": "uint256"
        }
      ],
      "name": "safeTransferFrom",
      "outputs": [],
      "stateMutability": "nonpayable",
      "type": "function"
    },
    {
      "inputs": [
        {
          "internalType": "address",
          "name": "from",
          "type": "address"
        },
        {
          "internalType": "address",
          "name": "to",
          "type": "address"
        },
        {
          "internalType": "uint256",
          "name": "tokenId",
          "type": "uint256"
        },
        {
          "internalType": "bytes",
          "name": "data",
          "type": "bytes"
        }
      ],
      "name": "safeTransferFrom",
      "outputs": [],
      "stateMutability": "nonpayable",
      "type": "function"
    },
    {
      "inputs": [
        {
          "internalType": "address",
          "name": "operator",
          "type": "address"
        },
        {
          "internalType": "bool",
          "name": "approved",
          "type": "bool"
        }
      ],
      "name": "setApprovalForAll",
      "outputs": [],
      "stateMutability": "nonpayable",
      "type": "function"
    },
    {
      "inputs": [
        {
          "internalType": "bytes4",
          "name": "interfaceId",
          "type": "bytes4"
        }
      ],
      "name": "supportsInterface",
      "outputs": [
        {
          "internalType": "bool",
          "name": "",
          "type": "bool"
        }
      ],
      "stateMutability": "view",
      "type": "function"
    },
    {
      "inputs": [],
      "name": "symbol",
      "outputs": [
        {
          "internalType": "string",
          "name": "",
          "type": "string"
        }
      ],
      "stateMutability": "view",
      "type": "function"
    },
    {
      "inputs": [
        {
          "internalType": "uint256",
          "name": "tokenId",
          "type": "uint256"
        }
      ],
      "name": "tokenURI",
      "outputs": [
        {
          "internalType": "string",
          "name": "",
          "type": "string"
        }
      ],
      "stateMutability": "view",
      "type": "function"
    },
    {
      "inputs": [],
      "name": "totalMinted",
      "outputs": [
        {
          "internalType": "uint256",
          "name": "",
          "type": "uint256"
        }
      ],
      "stateMutability": "view",
      "type": "function"
    },
    {
      "inputs": [
        {
          "internalType": "address",
          "name": "from",
          "type": "address"
        },
        {
          "internalType": "address",
          "name": "to",
          "type": "address"
        },
        {
          "internalType": "uint256",
          "name": "tokenId",
          "type": "uint256"
        }
      ],
      "name": "transferFrom",
      "outputs": [],
      "stateMutability": "nonpayable",
      "type": "function"
    },
    {
      "inputs": [
        {
          "internalType": "address",
          "name": "newOwner",
          "type": "address"
        }
      ],
      "name": "transferOwnership",
      "outputs": [],
      "stateMutability": "nonpayable",
      "type": "function"
    },
    {
      "inputs": [
        {
          "internalType": "uint256",
          "name": "tokenId",
          "type": "uint256"
        },
        {
          "internalType": "string",
          "name": "newName",
          "type": "string"
        },
        {
          "internalType": "string",
          "name": "newDescription",
          "type": "string"
        },
        {
          "internalType": "uint256",
          "name": "newPrice",
          "type": "uint256"
        },
        {
          "internalType": "bool",
          "name": "forSale",
          "type": "bool"
        }
      ],
      "name": "updateListing",
      "outputs": [],
      "stateMutability": "nonpayable",
      "type": "function"
    }
  ],
  "bytecode": "0x608060405234801561001057600080fd5b506040518060400160405280600981526020017f5265616c417373657400000000000000000000000000000000000000000000008152506040518060400160405280600581526020017f52414e4654000000000000000000000000000000000000000000000000000000815250816000908161008c91906103de565b50806001908161009c91906103de565b5050506100bb6100b06100c060201b60201c565b6100c860201b60201c565b6104b0565b600033905090565b6000600660009054906101000a900473ffffffffffffffffffffffffffffffffffffffff16905081600660006101000a81548173ffffffffffffffffffffffffffffffffffffffff021916908373ffffffffffffffffffffffffffffffffffffffff1602179055508173ffffffffffffffffffffffffffffffffffffffff168173ffffffffffffffffffffffffffffffffffffffff167f8be0079c531659141344cd1fd0a4f28419497f9722a3daafe3b4186f6b6457e060405160405180910390a35050565b600081519050919050565b7f4e487b7100000000000000000000000000000000000000000000000000000000600052604160045260246000fd5b7f4e487b7100000000000000000000000000000000000000000000000000000000600052602260045260246000fd5b6000600282049050600182168061020f57607f821691505b602082108103610222576102216101c8565b5b50919050565b60008190508160005260206000209050919050565b60006020601f8301049050919050565b600082821b905092915050565b60006008830261028a7fffffffffffffffffffffffffffffffffffffffffffffffffffffffffffffffff8261024d565b610294868361024d565b95508019841693508086168417925050509392505050565b6000819050919050565b6000819050919050565b60006102db6102d66102d1846102ac565b6102b6565b6102ac565b9050919050565b6000819050919050565b6102f5836102c0565b610309610301826102e2565b84845461025a565b825550505050565b600090565b61031e610311565b6103298184846102ec565b505050565b5b8181101561034d57610342600082610316565b60018101905061032f565b5050565b601f8211156103925761036381610228565b61036c8461023d565b8101602085101561037b578190505b61038f6103878561023d565b83018261032e565b50505b505050565b600082821c905092915050565b60006103b560001984600802610397565b1980831691505092915050565b60006103ce83836103a4565b9150826002028217905092915050565b6103e78261018e565b67ffffffffffffffff811115610400576103ff610199565b5b61040a82546101f7565b610415828285610351565b600060209050601f8311600181146104485760008415610436578287015190505b61044085826103c2565b8655506104a8565b601f19841661045686610228565b60005b8281101561047e57848901518255600182019150602085019450602081019050610459565b8683101561049b5784890151610497601f8916826103a4565b8355505b6001600288020188555050505b505050505050565b614402806104bf6000396000f3fe60806040526004361061014b5760003560e01c80638da5cb5b116100b6578063b88d4fde1161006f578063b88d4fde1461046d578063c87b56dd14610496578063cf35bdd0146104d3578063e985e9c514610515578063eac8f5b814610552578063f2fde38b146105935761014b565b80638da5cb5b146103715780638f08d44d1461039c57806395d89b41146103c55780639a681aeb146103f0578063a22cb46514610419578063a2309ff8146104425761014b565b806323b872dd1161010857806323b872dd146102635780632acada4d1461028c57806342842e0e146102b75780636352211e146102e057806370a082311461031d578063715018a61461035a5761014b565b806301ffc9a71461015057806306fdde031461018d578063081812fc146101b8578063095ea7b3146101f557806310bb37571461021e578063110d35b814610247575b600080fd5b34801561015c57600080fd5b5061017760048036038101906101729190612c71565b6105bc565b6040516101849190612cb9565b60405180910390f35b34801561019957600080fd5b506101a261069e565b6040516101af9190612d64565b60405180910390f35b3480156101c457600080fd5b506101df60048036038101906101da9190612dbc565b610730565b6040516101ec9190612e2a565b60405180910390f35b34801561020157600080fd5b5061021c60048036038101906102179190612e71565b610776565b005b34801561022a57600080fd5b5061024560048036038101906102409190613012565b61088d565b005b610261600480360381019061025c9190612dbc565b6109f0565b005b34801561026f57600080fd5b5061028a600480360381019061028591906130c5565b610d28565b005b34801561029857600080fd5b506102a1610d88565b6040516102ae91906132f3565b60405180910390f35b3480156102c357600080fd5b506102de60048036038101906102d991906130c5565b61108f565b005b3480156102ec57600080fd5b5061030760048036038101906103029190612dbc565b6110af565b6040516103149190612e2a565b60405180910390f35b34801561032957600080fd5b50610344600480360381019061033f9190613315565b611135565b6040516103519190613351565b60405180910390f35b34801561036657600080fd5b5061036f6111ec565b005b34801561037d57600080fd5b50610386611200565b6040516103939190612e2a565b60405180910390f35b3480156103a857600080fd5b506103c360048036038101906103be9190612dbc565b61122a565b005b3480156103d157600080fd5b506103da61132d565b6040516103e79190612d64565b60405180910390f35b3480156103fc57600080fd5b506104176004803603810190610412919061336c565b6113bf565b005b34801561042557600080fd5b50610440600480360381019061043b91906133f7565b611556565b005b34801561044e57600080fd5b5061045761156c565b6040516104649190613351565b60405180910390f35b34801561047957600080fd5b50610494600480360381019061048f91906134d8565b61157d565b005b3480156104a257600080fd5b506104bd60048036038101906104b89190612dbc565b6115df565b6040516104ca9190612d64565b60405180910390f35b3480156104df57600080fd5b506104fa60048036038101906104f59190612dbc565b611647565b60405161050c9695949392919061356a565b60405180910390f35b34801561052157600080fd5b5061053c600480360381019061053791906135d9565b6117c0565b6040516105499190612cb9565b60405180910390f35b34801561055e57600080fd5b5061057960048036038101906105749190612dbc565b611854565b60405161058a959493929190613619565b60405180910390f35b34801561059f57600080fd5b506105ba60048036038101906105b59190613315565b611a53565b005b60007f80ac58cd000000000000000000000000000000000000000000000000000000007bffffffffffffffffffffffffffffffffffffffffffffffffffffffff1916827bffffffffffffffffffffffffffffffffffffffffffffffffffffffff1916148061068757507f5b5e139f000000000000000000000000000000000000000000000000000000007bffffffffffffffffffffffffffffffffffffffffffffffffffffffff1916827bffffffffffffffffffffffffffffffffffffffffffffffffffffffff1916145b80610697575061069682611ad6565b5b9050919050565b6060600080546106ad906136a9565b80601f01602080910402602001604051908101604052809291908181526020018280546106d9906136a9565b80156107265780601f106106fb57610100808354040283529160200191610726565b820191906000526020600020905b81548152906001019060200180831161070957829003601f168201915b5050505050905090565b600061073b82611b40565b6004600083815260200190815260200160002060009054906101000a900473ffffffffffffffffffffffffffffffffffffffff169050919050565b6000610781826110af565b90508073ffffffffffffffffffffffffffffffffffffffff168373ffffffffffffffffffffffffffffffffffffffff16036107f1576040517f08c379a00000000000000000000000000000000000000000000000000000000081526004016107e89061374c565b60405180910390fd5b8073ffffffffffffffffffffffffffffffffffffffff16610810611b8b565b73ffffffffffffffffffffffffffffffffffffffff16148061083f575061083e81610839611b8b565b6117c0565b5b61087e576040517f08c379a0000000000000000000000000000000000000000000000000000000008152600401610875906137de565b60405180910390fd5b6108888383611b93565b505050565b3373ffffffffffffffffffffffffffffffffffffffff166108ad866110af565b73ffffffffffffffffffffffffffffffffffffffff1614610903576040517f08c379a00000000000000000000000000000000000000000000000000000000081526004016108fa9061384a565b60405180910390fd5b816009600087815260200190815260200160002060030181905550836009600087815260200190815260200160002060010190816109419190613a16565b50826009600087815260200190815260200160002060020190816109659190613a16565b50806009600087815260200190815260200160002060040160146101000a81548160ff021916908315150217905550336009600087815260200190815260200160002060040160006101000a81548173ffffffffffffffffffffffffffffffffffffffff021916908373ffffffffffffffffffffffffffffffffffffffff1602179055505050505050565b6000600960008381526020019081526020016000206040518060c001604052908160008201548152602001600182018054610a2a906136a9565b80601f0160208091040260200160405190810160405280929190818152602001828054610a56906136a9565b8015610aa35780601f10610a7857610100808354040283529160200191610aa3565b820191906000526020600020905b815481529060010190602001808311610a8657829003601f168201915b50505050508152602001600282018054610abc906136a9565b80601f0160208091040260200160405190810160405280929190818152602001828054610ae8906136a9565b8015610b355780601f10610b0a57610100808354040283529160200191610b35565b820191906000526020600020905b815481529060010190602001808311610b1857829003601f168201915b50505050508152602001600382015481526020016004820160009054906101000a900473ffffffffffffffffffffffffffffffffffffffff1673ffffffffffffffffffffffffffffffffffffffff1673ffffffffffffffffffffffffffffffffffffffff1681526020016004820160149054906101000a900460ff16151515158152505090508060a00151610bff576040517f08c379a0000000000000000000000000000000000000000000000000000000008152600401610bf690613b34565b60405180910390fd5b8060600151341015610c46576040517f08c379a0000000000000000000000000000000000000000000000000000000008152600401610c3d90613ba0565b60405180910390fd5b806080015173ffffffffffffffffffffffffffffffffffffffff166108fc349081150290604051600060405180830381858888f19350505050158015610c90573d6000803e3d6000fd5b50610ca081608001513384611c4c565b60006009600084815260200190815260200160002060040160146101000a81548160ff021916908315150217905550336009600084815260200190815260200160002060040160006101000a81548173ffffffffffffffffffffffffffffffffffffffff021916908373ffffffffffffffffffffffffffffffffffffffff1602179055505050565b610d39610d33611b8b565b82611f45565b610d78576040517f08c379a0000000000000000000000000000000000000000000000000000000008152600401610d6f90613c32565b60405180910390fd5b610d83838383611c4c565b505050565b606060006008805490509050600080600090505b82811015610dec57610dcb60088281548110610dbb57610dba613c52565b5b9060005260206000200154611fda565b15610ddf578180610ddb90613cb0565b9250505b8080600101915050610d9c565b5060008167ffffffffffffffff811115610e0957610e08612ebb565b5b604051908082528060200260200182016040528015610e4257816020015b610e2f612b5a565b815260200190600190039081610e275790505b5090506000805b8481101561108457600060088281548110610e6757610e66613c52565b5b90600052602060002001549050610e7d81611fda565b1561107657600960008281526020019081526020016000206040518060c001604052908160008201548152602001600182018054610eba906136a9565b80601f0160208091040260200160405190810160405280929190818152602001828054610ee6906136a9565b8015610f335780601f10610f0857610100808354040283529160200191610f33565b820191906000526020600020905b815481529060010190602001808311610f1657829003601f168201915b50505050508152602001600282018054610f4c906136a9565b80601f0160208091040260200160405190810160405280929190818152602001828054610f78906136a9565b8015610fc55780601f10610f9a57610100808354040283529160200191610fc5565b820191906000526020600020905b815481529060010190602001808311610fa857829003601f168201915b50505050508152602001600382015481526020016004820160009054906101000a900473ffffffffffffffffffffffffffffffffffffffff1673ffffffffffffffffffffffffffffffffffffffff1673ffffffffffffffffffffffffffffffffffffffff1681526020016004820160149054906101000a900460ff16151515158152505084848151811061105c5761105b613c52565b5b6020026020010181905250828061107290613cb0565b9350505b508080600101915050610e49565b508194505050505090565b6110aa8383836040518060200160405280600081525061157d565b505050565b6000806110bb8361201b565b9050600073ffffffffffffffffffffffffffffffffffffffff168173ffffffffffffffffffffffffffffffffffffffff160361112c576040517f08c379a000000000000000000000000000000000000000000000000000000000815260040161112390613d44565b60405180910390fd5b80915050919050565b60008073ffffffffffffffffffffffffffffffffffffffff168273ffffffffffffffffffffffffffffffffffffffff16036111a5576040517f08c379a000000000000000000000000000000000000000000000000000000000815260040161119c90613dd6565b60405180910390fd5b600360008373ffffffffffffffffffffffffffffffffffffffff1673ffffffffffffffffffffffffffffffffffffffff168152602001908152602001600020549050919050565b6111f4612058565b6111fe60006120d6565b565b6000600660009054906101000a900473ffffffffffffffffffffffffffffffffffffffff16905090565b3373ffffffffffffffffffffffffffffffffffffffff1661124a826110af565b73ffffffffffffffffffffffffffffffffffffffff16146112a0576040517f08c379a00000000000000000000000000000000000000000000000000000000081526004016112979061384a565b60405180910390fd5b6112a98161219c565b600960008281526020019081526020016000206000808201600090556001820160006112d59190612ba8565b6002820160006112e59190612ba8565b60038201600090556004820160006101000a81549073ffffffffffffffffffffffffffffffffffffffff02191690556004820160146101000a81549060ff0219169055505050565b60606001805461133c906136a9565b80601f0160208091040260200160405190810160405280929190818152602001828054611368906136a9565b80156113b55780601f1061138a576101008083540402835291602001916113b5565b820191906000526020600020905b81548152906001019060200180831161139857829003601f168201915b5050505050905090565b60008111611402576040517f08c379a00000000000000000000000000000000000000000000000000000000081526004016113f990613e42565b60405180910390fd5b61140c60076122ea565b60006114186007612300565b9050611424338261230e565b6040518060c001604052808281526020018581526020018481526020018381526020013373ffffffffffffffffffffffffffffffffffffffff168152602001600115158152506009600083815260200190815260200160002060008201518160000155602082015181600101908161149c9190613a16565b5060408201518160020190816114b29190613a16565b506060820151816003015560808201518160040160006101000a81548173ffffffffffffffffffffffffffffffffffffffff021916908373ffffffffffffffffffffffffffffffffffffffff16021790555060a08201518160040160146101000a81548160ff021916908315150217905550905050600881908060018154018082558091505060019003906000526020600020016000909190919091505550505050565b611568611561611b8b565b838361232c565b5050565b60006115786007612300565b905090565b61158e611588611b8b565b83611f45565b6115cd576040517f08c379a00000000000000000000000000000000000000000000000000000000081526004016115c490613c32565b60405180910390fd5b6115d984848484612498565b50505050565b60606115ea82611b40565b60006115f46124f4565b90506000815111611614576040518060200160405280600081525061163f565b8061161e8461250b565b60405160200161162f929190613e9e565b6040516020818303038152906040525b915050919050565b6009602052806000526040600020600091509050806000015490806001018054611670906136a9565b80601f016020809104026020016040519081016040528092919081815260200182805461169c906136a9565b80156116e95780601f106116be576101008083540402835291602001916116e9565b820191906000526020600020905b8154815290600101906020018083116116cc57829003601f168201915b5050505050908060020180546116fe906136a9565b80601f016020809104026020016040519081016040528092919081815260200182805461172a906136a9565b80156117775780601f1061174c57610100808354040283529160200191611777565b820191906000526020600020905b81548152906001019060200180831161175a57829003601f168201915b5050505050908060030154908060040160009054906101000a900473ffffffffffffffffffffffffffffffffffffffff16908060040160149054906101000a900460ff16905086565b6000600560008473ffffffffffffffffffffffffffffffffffffffff1673ffffffffffffffffffffffffffffffffffffffff16815260200190815260200160002060008373ffffffffffffffffffffffffffffffffffffffff1673ffffffffffffffffffffffffffffffffffffffff16815260200190815260200160002060009054906101000a900460ff16905092915050565b606080600080600080600960008881526020019081526020016000206040518060c001604052908160008201548152602001600182018054611895906136a9565b80601f01602080910402602001604051908101604052809291908181526020018280546118c1906136a9565b801561190e5780601f106118e35761010080835404028352916020019161190e565b820191906000526020600020905b8154815290600101906020018083116118f157829003601f168201915b50505050508152602001600282018054611927906136a9565b80601f0160208091040260200160405190810160405280929190818152602001828054611953906136a9565b80156119a05780601f10611975576101008083540402835291602001916119a0565b820191906000526020600020905b81548152906001019060200180831161198357829003601f168201915b50505050508152602001600382015481526020016004820160009054906101000a900473ffffffffffffffffffffffffffffffffffffffff1673ffffffffffffffffffffffffffffffffffffffff1673ffffffffffffffffffffffffffffffffffffffff1681526020016004820160149054906101000a900460ff161515151581525050905080602001518160400151826060015183608001518460a00151955095509550955095505091939590929450565b611a5b612058565b600073ffffffffffffffffffffffffffffffffffffffff168173ffffffffffffffffffffffffffffffffffffffff1603611aca576040517f08c379a0000000000000000000000000000000000000000000000000000000008152600401611ac190613f34565b60405180910390fd5b611ad3816120d6565b50565b60007f01ffc9a7000000000000000000000000000000000000000000000000000000007bffffffffffffffffffffffffffffffffffffffffffffffffffffffff1916827bffffffffffffffffffffffffffffffffffffffffffffffffffffffff1916149050919050565b611b4981611fda565b611b88576040517f08c379a0000000000000000000000000000000000000000000000000000000008152600401611b7f90613d44565b60405180910390fd5b50565b600033905090565b816004600083815260200190815260200160002060006101000a81548173ffffffffffffffffffffffffffffffffffffffff021916908373ffffffffffffffffffffffffffffffffffffffff160217905550808273ffffffffffffffffffffffffffffffffffffffff16611c06836110af565b73ffffffffffffffffffffffffffffffffffffffff167f8c5be1e5ebec7d5bd14f71427d1e84f3dd0314c0f7b2291e5b200ac8c7c3b92560405160405180910390a45050565b8273ffffffffffffffffffffffffffffffffffffffff16611c6c826110af565b73ffffffffffffffffffffffffffffffffffffffff1614611cc2576040517f08c379a0000000000000000000000000000000000000000000000000000000008152600401611cb990613fc6565b60405180910390fd5b600073ffffffffffffffffffffffffffffffffffffffff168273ffffffffffffffffffffffffffffffffffffffff1603611d31576040517f08c379a0000000000000000000000000000000000000000000000000000000008152600401611d2890614058565b60405180910390fd5b611d3e83838360016125d9565b8273ffffffffffffffffffffffffffffffffffffffff16611d5e826110af565b73ffffffffffffffffffffffffffffffffffffffff1614611db4576040517f08c379a0000000000000000000000000000000000000000000000000000000008152600401611dab90613fc6565b60405180910390fd5b6004600082815260200190815260200160002060006101000a81549073ffffffffffffffffffffffffffffffffffffffff02191690556001600360008573ffffffffffffffffffffffffffffffffffffffff1673ffffffffffffffffffffffffffffffffffffffff168152602001908152602001600020600082825403925050819055506001600360008473ffffffffffffffffffffffffffffffffffffffff1673ffffffffffffffffffffffffffffffffffffffff16815260200190815260200160002060008282540192505081905550816002600083815260200190815260200160002060006101000a81548173ffffffffffffffffffffffffffffffffffffffff021916908373ffffffffffffffffffffffffffffffffffffffff160217905550808273ffffffffffffffffffffffffffffffffffffffff168473ffffffffffffffffffffffffffffffffffffffff167fddf252ad1be2c89b69c2b068fc378daa952ba7f163c4a11628f55a4df523b3ef60405160405180910390a4611f4083838360016125df565b505050565b600080611f51836110af565b90508073ffffffffffffffffffffffffffffffffffffffff168473ffffffffffffffffffffffffffffffffffffffff161480611f935750611f9281856117c0565b5b80611fd157508373ffffffffffffffffffffffffffffffffffffffff16611fb984610730565b73ffffffffffffffffffffffffffffffffffffffff16145b91505092915050565b60008073ffffffffffffffffffffffffffffffffffffffff16611ffc8361201b565b73ffffffffffffffffffffffffffffffffffffffff1614159050919050565b60006002600083815260200190815260200160002060009054906101000a900473ffffffffffffffffffffffffffffffffffffffff169050919050565b612060611b8b565b73ffffffffffffffffffffffffffffffffffffffff1661207e611200565b73ffffffffffffffffffffffffffffffffffffffff16146120d4576040517f08c379a00000000000000000000000000000000000000000000000000000000081526004016120cb906140c4565b60405180910390fd5b565b6000600660009054906101000a900473ffffffffffffffffffffffffffffffffffffffff16905081600660006101000a81548173ffffffffffffffffffffffffffffffffffffffff021916908373ffffffffffffffffffffffffffffffffffffffff1602179055508173ffffffffffffffffffffffffffffffffffffffff168173ffffffffffffffffffffffffffffffffffffffff167f8be0079c531659141344cd1fd0a4f28419497f9722a3daafe3b4186f6b6457e060405160405180910390a35050565b60006121a7826110af565b90506121b78160008460016125d9565b6121c0826110af565b90506004600083815260200190815260200160002060006101000a81549073ffffffffffffffffffffffffffffffffffffffff02191690556001600360008373ffffffffffffffffffffffffffffffffffffffff1673ffffffffffffffffffffffffffffffffffffffff168152602001908152602001600020600082825403925050819055506002600083815260200190815260200160002060006101000a81549073ffffffffffffffffffffffffffffffffffffffff021916905581600073ffffffffffffffffffffffffffffffffffffffff168273ffffffffffffffffffffffffffffffffffffffff167fddf252ad1be2c89b69c2b068fc378daa952ba7f163c4a11628f55a4df523b3ef60405160405180910390a46122e68160008460016125df565b5050565b6001816000016000828254019250508190555050565b600081600001549050919050565b6123288282604051806020016040528060008152506125e5565b5050565b8173ffffffffffffffffffffffffffffffffffffffff168373ffffffffffffffffffffffffffffffffffffffff160361239a576040517f08c379a000000000000000000000000000000000000000000000000000000000815260040161239190614130565b60405180910390fd5b80600560008573ffffffffffffffffffffffffffffffffffffffff1673ffffffffffffffffffffffffffffffffffffffff16815260200190815260200160002060008473ffffffffffffffffffffffffffffffffffffffff1673ffffffffffffffffffffffffffffffffffffffff16815260200190815260200160002060006101000a81548160ff0219169083151502179055508173ffffffffffffffffffffffffffffffffffffffff168373ffffffffffffffffffffffffffffffffffffffff167f17307eab39ab6107e8899845ad3d59bd9653f200f220920489ca2b5937696c318360405161248b9190612cb9565b60405180910390a3505050565b6124a3848484611c4c565b6124af84848484612640565b6124ee576040517f08c379a00000000000000000000000000000000000000000000000000000000081526004016124e5906141c2565b60405180910390fd5b50505050565b606060405180602001604052806000815250905090565b60606000600161251a846127c7565b01905060008167ffffffffffffffff81111561253957612538612ebb565b5b6040519080825280601f01601f19166020018201604052801561256b5781602001600182028036833780820191505090505b509050600082602001820190505b6001156125ce578080600190039150507f3031323334353637383961626364656600000000000000000000000000000000600a86061a8153600a85816125c2576125c16141e2565b5b04945060008503612579575b819350505050919050565b50505050565b50505050565b6125ef838361291a565b6125fc6000848484612640565b61263b576040517f08c379a0000000000000000000000000000000000000000000000000000000008152600401612632906141c2565b60405180910390fd5b505050565b60006126618473ffffffffffffffffffffffffffffffffffffffff16612b37565b156127ba578373ffffffffffffffffffffffffffffffffffffffff1663150b7a0261268a611b8b565b8786866040518563ffffffff1660e01b81526004016126ac9493929190614266565b6020604051808303816000875af19250505080156126e857506040513d601f19601f820116820180604052508101906126e591906142c7565b60015b61276a573d8060008114612718576040519150601f19603f3d011682016040523d82523d6000602084013e61271d565b606091505b506000815103612762576040517f08c379a0000000000000000000000000000000000000000000000000000000008152600401612759906141c2565b60405180910390fd5b805181602001fd5b63150b7a0260e01b7bffffffffffffffffffffffffffffffffffffffffffffffffffffffff1916817bffffffffffffffffffffffffffffffffffffffffffffffffffffffff1916149150506127bf565b600190505b949350505050565b600080600090507a184f03e93ff9f4daa797ed6e38ed64bf6a1f0100000000000000008310612825577a184f03e93ff9f4daa797ed6e38ed64bf6a1f010000000000000000838161281b5761281a6141e2565b5b0492506040810190505b6d04ee2d6d415b85acef81000000008310612862576d04ee2d6d415b85acef81000000008381612858576128576141e2565b5b0492506020810190505b662386f26fc10000831061289157662386f26fc100008381612887576128866141e2565b5b0492506010810190505b6305f5e10083106128ba576305f5e10083816128b0576128af6141e2565b5b0492506008810190505b61271083106128df5761271083816128d5576128d46141e2565b5b0492506004810190505b6064831061290257606483816128f8576128f76141e2565b5b0492506002810190505b600a8310612911576001810190505b80915050919050565b600073ffffffffffffffffffffffffffffffffffffffff168273ffffffffffffffffffffffffffffffffffffffff1603612989576040517f08c379a000000000000000000000000000000000000000000000000000000000815260040161298090614340565b60405180910390fd5b61299281611fda565b156129d2576040517f08c379a00000000000000000000000000000000000000000000000000000000081526004016129c9906143ac565b60405180910390fd5b6129e06000838360016125d9565b6129e981611fda565b15612a29576040517f08c379a0000000000000000000000000000000000000000000000000000000008152600401612a20906143ac565b60405180910390fd5b6001600360008473ffffffffffffffffffffffffffffffffffffffff1673ffffffffffffffffffffffffffffffffffffffff16815260200190815260200160002060008282540192505081905550816002600083815260200190815260200160002060006101000a81548173ffffffffffffffffffffffffffffffffffffffff021916908373ffffffffffffffffffffffffffffffffffffffff160217905550808273ffffffffffffffffffffffffffffffffffffffff16600073ffffffffffffffffffffffffffffffffffffffff167fddf252ad1be2c89b69c2b068fc378daa952ba7f163c4a11628f55a4df523b3ef60405160405180910390a4612b336000838360016125df565b5050565b6000808273ffffffffffffffffffffffffffffffffffffffff163b119050919050565b6040518060c0016040528060008152602001606081526020016060815260200160008152602001600073ffffffffffffffffffffffffffffffffffffffff1681526020016000151581525090565b508054612bb4906136a9565b6000825580601f10612bc65750612be5565b601f016020900490600052602060002090810190612be49190612be8565b5b50565b5b80821115612c01576000816000905550600101612be9565b5090565b6000604051905090565b600080fd5b600080fd5b60007fffffffff0000000000000000000000000000000000000000000000000000000082169050919050565b612c4e81612c19565b8114612c5957600080fd5b50565b600081359050612c6b81612c45565b92915050565b600060208284031215612c8757612c86612c0f565b5b6000612c9584828501612c5c565b91505092915050565b60008115159050919050565b612cb381612c9e565b82525050565b6000602082019050612cce6000830184612caa565b92915050565b600081519050919050565b600082825260208201905092915050565b60005b83811015612d0e578082015181840152602081019050612cf3565b60008484015250505050565b6000601f19601f8301169050919050565b6000612d3682612cd4565b612d408185612cdf565b9350612d50818560208601612cf0565b612d5981612d1a565b840191505092915050565b60006020820190508181036000830152612d7e8184612d2b565b905092915050565b6000819050919050565b612d9981612d86565b8114612da457600080fd5b50565b600081359050612db681612d90565b92915050565b600060208284031215612dd257612dd1612c0f565b5b6000612de084828501612da7565b91505092915050565b600073ffffffffffffffffffffffffffffffffffffffff82169050919050565b6000612e1482612de9565b9050919050565b612e2481612e09565b82525050565b6000602082019050612e3f6000830184612e1b565b92915050565b612e4e81612e09565b8114612e5957600080fd5b50565b600081359050612e6b81612e45565b92915050565b60008060408385031215612e8857612e87612c0f565b5b6000612e9685828601612e5c565b9250506020612ea785828601612da7565b9150509250929050565b600080fd5b600080fd5b7f4e487b7100000000000000000000000000000000000000000000000000000000600052604160045260246000fd5b612ef382612d1a565b810181811067ffffffffffffffff82111715612f1257612f11612ebb565b5b80604052505050565b6000612f25612c05565b9050612f318282612eea565b919050565b600067ffffffffffffffff821115612f5157612f50612ebb565b5b612f5a82612d1a565b9050602081019050919050565b82818337600083830152505050565b6000612f89612f8484612f36565b612f1b565b905082815260208101848484011115612fa557612fa4612eb6565b5b612fb0848285612f67565b509392505050565b600082601f830112612fcd57612fcc612eb1565b5b8135612fdd848260208601612f76565b91505092915050565b612fef81612c9e565b8114612ffa57600080fd5b50565b60008135905061300c81612fe6565b92915050565b600080600080600060a0868803121561302e5761302d612c0f565b5b600061303c88828901612da7565b955050602086013567ffffffffffffffff81111561305d5761305c612c14565b5b61306988828901612fb8565b945050604086013567ffffffffffffffff81111561308a57613089612c14565b5b61309688828901612fb8565b93505060606130a788828901612da7565b92505060806130b888828901612ffd565b9150509295509295909350565b6000806000606084860312156130de576130dd612c0f565b5b60006130ec86828701612e5c565b93505060206130fd86828701612e5c565b925050604061310e86828701612da7565b9150509250925092565b600081519050919050565b600082825260208201905092915050565b6000819050602082019050919050565b61314d81612d86565b82525050565b600082825260208201905092915050565b600061316f82612cd4565b6131798185613153565b9350613189818560208601612cf0565b61319281612d1a565b840191505092915050565b60006131a882612de9565b9050919050565b6131b88161319d565b82525050565b6131c781612c9e565b82525050565b600060c0830160008301516131e56000860182613144565b50602083015184820360208601526131fd8282613164565b915050604083015184820360408601526132178282613164565b915050606083015161322c6060860182613144565b50608083015161323f60808601826131af565b5060a083015161325260a08601826131be565b508091505092915050565b600061326983836131cd565b905092915050565b6000602082019050919050565b600061328982613118565b6132938185613123565b9350836020820285016132a585613134565b8060005b858110156132e157848403895281516132c2858261325d565b94506132cd83613271565b925060208a019950506001810190506132a9565b50829750879550505050505092915050565b6000602082019050818103600083015261330d818461327e565b905092915050565b60006020828403121561332b5761332a612c0f565b5b600061333984828501612e5c565b91505092915050565b61334b81612d86565b82525050565b60006020820190506133666000830184613342565b92915050565b60008060006060848603121561338557613384612c0f565b5b600084013567ffffffffffffffff8111156133a3576133a2612c14565b5b6133af86828701612fb8565b935050602084013567ffffffffffffffff8111156133d0576133cf612c14565b5b6133dc86828701612fb8565b92505060406133ed86828701612da7565b9150509250925092565b6000806040838503121561340e5761340d612c0f565b5b600061341c85828601612e5c565b925050602061342d85828601612ffd565b9150509250929050565b600067ffffffffffffffff82111561345257613451612ebb565b5b61345b82612d1a565b9050602081019050919050565b600061347b61347684613437565b612f1b565b90508281526020810184848401111561349757613496612eb6565b5b6134a2848285612f67565b509392505050565b600082601f8301126134bf576134be612eb1565b5b81356134cf848260208601613468565b91505092915050565b600080600080608085870312156134f2576134f1612c0f565b5b600061350087828801612e5c565b945050602061351187828801612e5c565b935050604061352287828801612da7565b925050606085013567ffffffffffffffff81111561354357613542612c14565b5b61354f878288016134aa565b91505092959194509250565b6135648161319d565b82525050565b600060c08201905061357f6000830189613342565b81810360208301526135918188612d2b565b905081810360408301526135a58187612d2b565b90506135b46060830186613342565b6135c1608083018561355b565b6135ce60a0830184612caa565b979650505050505050565b600080604083850312156135f0576135ef612c0f565b5b60006135fe85828601612e5c565b925050602061360f85828601612e5c565b9150509250929050565b600060a08201905081810360008301526136338188612d2b565b905081810360208301526136478187612d2b565b90506136566040830186613342565b6136636060830185612e1b565b6136706080830184612caa565b9695505050505050565b7f4e487b7100000000000000000000000000000000000000000000000000000000600052602260045260246000fd5b600060028204905060018216806136c157607f821691505b6020821081036136d4576136d361367a565b5b50919050565b7f4552433732313a20617070726f76616c20746f2063757272656e74206f776e6560008201527f7200000000000000000000000000000000000000000000000000000000000000602082015250565b6000613736602183612cdf565b9150613741826136da565b604082019050919050565b6000602082019050818103600083015261376581613729565b9050919050565b7f4552433732313a20617070726f76652063616c6c6572206973206e6f7420746f60008201527f6b656e206f776e6572206f7220617070726f76656420666f7220616c6c000000602082015250565b60006137c8603d83612cdf565b91506137d38261376c565b604082019050919050565b600060208201905081810360008301526137f7816137bb565b9050919050565b7f4e6f7420746865206f776e657200000000000000000000000000000000000000600082015250565b6000613834600d83612cdf565b915061383f826137fe565b602082019050919050565b6000602082019050818103600083015261386381613827565b9050919050565b60008190508160005260206000209050919050565b60006020601f8301049050919050565b600082821b905092915050565b6000600883026138cc7fffffffffffffffffffffffffffffffffffffffffffffffffffffffffffffffff8261388f565b6138d6868361388f565b95508019841693508086168417925050509392505050565b6000819050919050565b600061391361390e61390984612d86565b6138ee565b612d86565b9050919050565b6000819050919050565b61392d836138f8565b6139416139398261391a565b84845461389c565b825550505050565b600090565b613956613949565b613961818484613924565b505050565b5b818110156139855761397a60008261394e565b600181019050613967565b5050565b601f8211156139ca5761399b8161386a565b6139a48461387f565b810160208510156139b3578190505b6139c76139bf8561387f565b830182613966565b50505b505050565b600082821c905092915050565b60006139ed600019846008026139cf565b1980831691505092915050565b6000613a0683836139dc565b9150826002028217905092915050565b613a1f82612cd4565b67ffffffffffffffff811115613a3857613a37612ebb565b5b613a4282546136a9565b613a4d828285613989565b600060209050601f831160018114613a805760008415613a6e578287015190505b613a7885826139fa565b865550613ae0565b601f198416613a8e8661386a565b60005b82811015613ab657848901518255600182019150602085019450602081019050613a91565b86831015613ad35784890151613acf601f8916826139dc565b8355505b6001600288020188555050505b505050505050565b7f4173736574206e6f7420666f722073616c650000000000000000000000000000600082015250565b6000613b1e601283612cdf565b9150613b2982613ae8565b602082019050919050565b60006020820190508181036000830152613b4d81613b11565b9050919050565b7f4e6f7420656e6f75676820455448000000000000000000000000000000000000600082015250565b6000613b8a600e83612cdf565b9150613b9582613b54565b602082019050919050565b60006020820190508181036000830152613bb981613b7d565b9050919050565b7f4552433732313a2063616c6c6572206973206e6f7420746f6b656e206f776e6560008201527f72206f7220617070726f76656400000000000000000000000000000000000000602082015250565b6000613c1c602d83612cdf565b9150613c2782613bc0565b604082019050919050565b60006020820190508181036000830152613c4b81613c0f565b9050919050565b7f4e487b7100000000000000000000000000000000000000000000000000000000600052603260045260246000fd5b7f4e487b7100000000000000000000000000000000000000000000000000000000600052601160045260246000fd5b6000613cbb82612d86565b91507fffffffffffffffffffffffffffffffffffffffffffffffffffffffffffffffff8203613ced57613cec613c81565b5b600182019050919050565b7f4552433732313a20696e76616c696420746f6b656e2049440000000000000000600082015250565b6000613d2e601883612cdf565b9150613d3982613cf8565b602082019050919050565b60006020820190508181036000830152613d5d81613d21565b9050919050565b7f4552433732313a2061646472657373207a65726f206973206e6f74206120766160008201527f6c6964206f776e65720000000000000000000000000000000000000000000000602082015250565b6000613dc0602983612cdf565b9150613dcb82613d64565b604082019050919050565b60006020820190508181036000830152613def81613db3565b9050919050565b7f5072696365206d757374206265203e2030000000000000000000000000000000600082015250565b6000613e2c601183612cdf565b9150613e3782613df6565b602082019050919050565b60006020820190508181036000830152613e5b81613e1f565b9050919050565b600081905092915050565b6000613e7882612cd4565b613e828185613e62565b9350613e92818560208601612cf0565b80840191505092915050565b6000613eaa8285613e6d565b9150613eb68284613e6d565b91508190509392505050565b7f4f776e61626c653a206e6577206f776e657220697320746865207a65726f206160008201527f6464726573730000000000000000000000000000000000000000000000000000602082015250565b6000613f1e602683612cdf565b9150613f2982613ec2565b604082019050919050565b60006020820190508181036000830152613f4d81613f11565b9050919050565b7f4552433732313a207472616e736665722066726f6d20696e636f72726563742060008201527f6f776e6572000000000000000000000000000000000000000000000000000000602082015250565b6000613fb0602583612cdf565b9150613fbb82613f54565b604082019050919050565b60006020820190508181036000830152613fdf81613fa3565b9050919050565b7f4552433732313a207472616e7366657220746f20746865207a65726f2061646460008201527f7265737300000000000000000000000000000000000000000000000000000000602082015250565b6000614042602483612cdf565b915061404d82613fe6565b604082019050919050565b6000602082019050818103600083015261407181614035565b9050919050565b7f4f776e61626c653a2063616c6c6572206973206e6f7420746865206f776e6572600082015250565b60006140ae602083612cdf565b91506140b982614078565b602082019050919050565b600060208201905081810360008301526140dd816140a1565b9050919050565b7f4552433732313a20617070726f766520746f2063616c6c657200000000000000600082015250565b600061411a601983612cdf565b9150614125826140e4565b602082019050919050565b600060208201905081810360008301526141498161410d565b9050919050565b7f4552433732313a207472616e7366657220746f206e6f6e20455243373231526560008201527f63656976657220696d706c656d656e7465720000000000000000000000000000602082015250565b60006141ac603283612cdf565b91506141b782614150565b604082019050919050565b600060208201905081810360008301526141db8161419f565b9050919050565b7f4e487b7100000000000000000000000000000000000000000000000000000000600052601260045260246000fd5b600081519050919050565b600082825260208201905092915050565b600061423882614211565b614242818561421c565b9350614252818560208601612cf0565b61425b81612d1a565b840191505092915050565b600060808201905061427b6000830187612e1b565b6142886020830186612e1b565b6142956040830185613342565b81810360608301526142a7818461422d565b905095945050505050565b6000815190506142c181612c45565b92915050565b6000602082840312156142dd576142dc612c0f565b5b60006142eb848285016142b2565b91505092915050565b7f4552433732313a206d696e7420746f20746865207a65726f2061646472657373600082015250565b600061432a602083612cdf565b9150614335826142f4565b602082019050919050565b600060208201905081810360008301526143598161431d565b9050919050565b7f4552433732313a20746f6b656e20616c7265616479206d696e74656400000000600082015250565b6000614396601c83612cdf565b91506143a182614360565b602082019050919050565b600060208201905081810360008301526143c581614389565b905091905056fea26469706673582212203d4758711106fd70e63c20c06a0232cd6aac37ded7566105984000a7140c442c64736f6c634300081c0033",
  "linkReferences": {},
  "deployedLinkReferences": {}
}